20161121-16:58:43.008 : 8=FIX.4.2|9=74|35=A|34=1|49=BRANZOL|52=20161121-16:58:43.008|56=FIXSIM|98=0|108=30|141=Y|10=021|
20161121-16:58:43.009 : 8=FIX.4.2|9=74|35=A|34=1|49=FIXSIM|52=20161121-16:58:43.009|56=BRANZOL|98=0|108=30|141=Y|10=022|
20161121-17:05:50.245 : 8=FIX.4.2|9=74|35=A|34=1|49=BRANZOL|52=20161121-17:05:50.245|56=FIXSIM|98=0|108=30|141=Y|10=015|
20161121-17:05:50.246 : 8=FIX.4.2|9=74|35=A|34=1|49=FIXSIM|52=20161121-17:05:50.246|56=BRANZOL|98=0|108=30|141=Y|10=016|
20161121-17:06:20.132 : 8=FIX.4.2|9=56|35=0|34=2|49=FIXSIM|52=20161121-17:06:20.132|56=BRANZOL|10=178|
20161121-17:06:20.133 : 8=FIX.4.2|9=56|35=0|34=2|49=BRANZOL|52=20161121-17:06:20.133|56=FIXSIM|10=179|
20161121-17:06:50.051 : 8=FIX.4.2|9=56|35=0|34=3|49=BRANZOL|52=20161121-17:06:50.051|56=FIXSIM|10=182|
20161121-17:06:50.052 : 8=FIX.4.2|9=56|35=0|34=3|49=FIXSIM|52=20161121-17:06:50.052|56=BRANZOL|10=183|
20161121-17:07:20.603 : 8=FIX.4.2|9=56|35=0|34=4|49=FIXSIM|52=20161121-17:07:20.603|56=BRANZOL|10=184|
20161121-17:07:20.603 : 8=FIX.4.2|9=56|35=0|34=4|49=BRANZOL|52=20161121-17:07:20.603|56=FIXSIM|10=184|
20161121-17:07:50.008 : 8=FIX.4.2|9=56|35=0|34=5|49=FIXSIM|52=20161121-17:07:50.008|56=BRANZOL|10=187|
20161121-17:07:50.009 : 8=FIX.4.2|9=56|35=0|34=5|49=BRANZOL|52=20161121-17:07:50.009|56=FIXSIM|10=188|
20161121-17:08:20.233 : 8=FIX.4.2|9=56|35=0|34=6|49=FIXSIM|52=20161121-17:08:20.232|56=BRANZOL|10=185|
20161121-17:08:20.233 : 8=FIX.4.2|9=56|35=0|34=6|49=BRANZOL|52=20161121-17:08:20.233|56=FIXSIM|10=186|
20161121-17:08:50.295 : 8=FIX.4.2|9=56|35=0|34=7|49=FIXSIM|52=20161121-17:08:50.295|56=BRANZOL|10=198|
20161121-17:08:50.295 : 8=FIX.4.2|9=56|35=0|34=7|49=BRANZOL|52=20161121-17:08:50.295|56=FIXSIM|10=198|
20161121-17:09:20.204 : 8=FIX.4.2|9=56|35=0|34=8|49=FIXSIM|52=20161121-17:09:20.204|56=BRANZOL|10=187|
20161121-17:09:20.204 : 8=FIX.4.2|9=56|35=0|34=8|49=BRANZOL|52=20161121-17:09:20.204|56=FIXSIM|10=187|
20161121-17:09:50.744 : 8=FIX.4.2|9=56|35=0|34=9|49=BRANZOL|52=20161121-17:09:50.744|56=FIXSIM|10=200|
20161121-17:09:50.745 : 8=FIX.4.2|9=56|35=0|34=9|49=FIXSIM|52=20161121-17:09:50.744|56=BRANZOL|10=200|
20161121-17:10:20.237 : 8=FIX.4.2|9=57|35=0|34=10|49=BRANZOL|52=20161121-17:10:20.237|56=FIXSIM|10=227|
20161121-17:10:20.238 : 8=FIX.4.2|9=57|35=0|34=10|49=FIXSIM|52=20161121-17:10:20.238|56=BRANZOL|10=228|
20161121-17:10:50.629 : 8=FIX.4.2|9=57|35=0|34=11|49=FIXSIM|52=20161121-17:10:50.629|56=BRANZOL|10=236|
20161121-17:10:50.630 : 8=FIX.4.2|9=57|35=0|34=11|49=BRANZOL|52=20161121-17:10:50.630|56=FIXSIM|10=228|
20161121-17:11:20.852 : 8=FIX.4.2|9=57|35=0|34=12|49=FIXSIM|52=20161121-17:11:20.852|56=BRANZOL|10=233|
20161121-17:11:20.853 : 8=FIX.4.2|9=57|35=0|34=12|49=BRANZOL|52=20161121-17:11:20.852|56=FIXSIM|10=233|
20161121-17:11:50.151 : 8=FIX.4.2|9=57|35=0|34=13|49=BRANZOL|52=20161121-17:11:50.151|56=FIXSIM|10=229|
20161121-17:11:50.152 : 8=FIX.4.2|9=57|35=0|34=13|49=FIXSIM|52=20161121-17:11:50.152|56=BRANZOL|10=230|
20161121-17:12:20.042 : 8=FIX.4.2|9=57|35=0|34=14|49=FIXSIM|52=20161121-17:12:20.040|56=BRANZOL|10=225|
20161121-17:12:20.043 : 8=FIX.4.2|9=57|35=0|34=14|49=BRANZOL|52=20161121-17:12:20.043|56=FIXSIM|10=228|
20161121-17:12:50.182 : 8=FIX.4.2|9=57|35=0|34=15|49=BRANZOL|52=20161121-17:12:50.182|56=FIXSIM|10=236|
20161121-17:12:50.183 : 8=FIX.4.2|9=57|35=0|34=15|49=FIXSIM|52=20161121-17:12:50.183|56=BRANZOL|10=237|
20161121-17:13:20.253 : 8=FIX.4.2|9=57|35=0|34=16|49=BRANZOL|52=20161121-17:13:20.252|56=FIXSIM|10=233|
20161121-17:13:20.253 : 8=FIX.4.2|9=57|35=0|34=16|49=FIXSIM|52=20161121-17:13:20.253|56=BRANZOL|10=234|
20161121-17:13:50.252 : 8=FIX.4.2|9=57|35=0|34=17|49=BRANZOL|52=20161121-17:13:50.252|56=FIXSIM|10=237|
20161121-17:13:50.253 : 8=FIX.4.2|9=57|35=0|34=17|49=FIXSIM|52=20161121-17:13:50.252|56=BRANZOL|10=237|
20161121-17:14:20.191 : 8=FIX.4.2|9=57|35=0|34=18|49=BRANZOL|52=20161121-17:14:20.191|56=FIXSIM|10=238|
20161121-17:14:20.191 : 8=FIX.4.2|9=57|35=0|34=18|49=FIXSIM|52=20161121-17:14:20.191|56=BRANZOL|10=238|
20161121-17:14:50.060 : 8=FIX.4.2|9=57|35=0|34=19|49=BRANZOL|52=20161121-17:14:50.060|56=FIXSIM|10=237|
20161121-17:14:50.061 : 8=FIX.4.2|9=57|35=0|34=19|49=FIXSIM|52=20161121-17:14:50.060|56=BRANZOL|10=237|
20161121-17:15:20.763 : 8=FIX.4.2|9=57|35=0|34=20|49=FIXSIM|52=20161121-17:15:20.762|56=BRANZOL|10=236|
20161121-17:15:20.763 : 8=FIX.4.2|9=57|35=0|34=20|49=BRANZOL|52=20161121-17:15:20.763|56=FIXSIM|10=237|
20161121-17:15:50.385 : 8=FIX.4.2|9=57|35=0|34=21|49=FIXSIM|52=20161121-17:15:50.385|56=BRANZOL|10=241|
20161121-17:15:50.385 : 8=FIX.4.2|9=57|35=0|34=21|49=BRANZOL|52=20161121-17:15:50.385|56=FIXSIM|10=241|
20161121-17:16:20.073 : 8=FIX.4.2|9=57|35=0|34=22|49=BRANZOL|52=20161121-17:16:20.073|56=FIXSIM|10=234|
20161121-17:16:20.073 : 8=FIX.4.2|9=57|35=0|34=22|49=FIXSIM|52=20161121-17:16:20.073|56=BRANZOL|10=234|
20161121-17:16:50.230 : 8=FIX.4.2|9=57|35=0|34=23|49=FIXSIM|52=20161121-17:16:50.229|56=BRANZOL|10=241|
20161121-17:16:50.230 : 8=FIX.4.2|9=57|35=0|34=23|49=BRANZOL|52=20161121-17:16:50.230|56=FIXSIM|10=233|
20161121-17:17:20.200 : 8=FIX.4.2|9=57|35=0|34=24|49=FIXSIM|52=20161121-17:17:20.199|56=BRANZOL|10=246|
20161121-17:17:20.200 : 8=FIX.4.2|9=57|35=0|34=24|49=BRANZOL|52=20161121-17:17:20.200|56=FIXSIM|10=229|
20161121-17:17:50.637 : 8=FIX.4.2|9=57|35=0|34=25|49=BRANZOL|52=20161121-17:17:50.637|56=FIXSIM|10=247|
20161121-17:17:50.637 : 8=FIX.4.2|9=57|35=0|34=25|49=FIXSIM|52=20161121-17:17:50.637|56=BRANZOL|10=247|
20161121-17:18:20.055 : 8=FIX.4.2|9=57|35=0|34=26|49=BRANZOL|52=20161121-17:18:20.054|56=FIXSIM|10=239|
20161121-17:18:20.055 : 8=FIX.4.2|9=57|35=0|34=26|49=FIXSIM|52=20161121-17:18:20.055|56=BRANZOL|10=240|
20161121-17:18:50.348 : 8=FIX.4.2|9=57|35=0|34=27|49=FIXSIM|52=20161121-17:18:50.347|56=BRANZOL|10=248|
20161121-17:18:50.348 : 8=FIX.4.2|9=57|35=0|34=27|49=BRANZOL|52=20161121-17:18:50.348|56=FIXSIM|10=249|
20161121-17:19:20.441 : 8=FIX.4.2|9=57|35=0|34=28|49=FIXSIM|52=20161121-17:19:20.441|56=BRANZOL|10=242|
20161121-17:19:20.441 : 8=FIX.4.2|9=57|35=0|34=28|49=BRANZOL|52=20161121-17:19:20.441|56=FIXSIM|10=242|
20161121-17:19:50.344 : 8=FIX.4.2|9=57|35=0|34=29|49=FIXSIM|52=20161121-17:19:50.344|56=BRANZOL|10=248|
20161121-17:19:50.345 : 8=FIX.4.2|9=57|35=0|34=29|49=BRANZOL|52=20161121-17:19:50.345|56=FIXSIM|10=249|
20161121-17:20:20.049 : 8=FIX.4.2|9=57|35=0|34=30|49=FIXSIM|52=20161121-17:20:20.049|56=BRANZOL|10=231|
20161121-17:20:20.050 : 8=FIX.4.2|9=57|35=0|34=30|49=BRANZOL|52=20161121-17:20:20.050|56=FIXSIM|10=223|
20161121-17:20:50.093 : 8=FIX.4.2|9=57|35=0|34=31|49=BRANZOL|52=20161121-17:20:50.093|56=FIXSIM|10=234|
20161121-17:20:50.093 : 8=FIX.4.2|9=57|35=0|34=31|49=FIXSIM|52=20161121-17:20:50.093|56=BRANZOL|10=234|
20161121-17:21:20.068 : 8=FIX.4.2|9=57|35=0|34=32|49=BRANZOL|52=20161121-17:21:20.068|56=FIXSIM|10=235|
20161121-17:21:20.069 : 8=FIX.4.2|9=57|35=0|34=32|49=FIXSIM|52=20161121-17:21:20.069|56=BRANZOL|10=236|
20161121-17:21:50.031 : 8=FIX.4.2|9=57|35=0|34=33|49=FIXSIM|52=20161121-17:21:50.031|56=BRANZOL|10=229|
20161121-17:21:50.031 : 8=FIX.4.2|9=57|35=0|34=33|49=BRANZOL|52=20161121-17:21:50.031|56=FIXSIM|10=229|
20161121-17:22:20.613 : 8=FIX.4.2|9=57|35=0|34=34|49=FIXSIM|52=20161121-17:22:20.613|56=BRANZOL|10=234|
20161121-17:22:20.614 : 8=FIX.4.2|9=57|35=0|34=34|49=BRANZOL|52=20161121-17:22:20.614|56=FIXSIM|10=235|
20161121-17:22:50.168 : 8=FIX.4.2|9=57|35=0|34=35|49=FIXSIM|52=20161121-17:22:50.168|56=BRANZOL|10=243|
20161121-17:22:50.169 : 8=FIX.4.2|9=57|35=0|34=35|49=BRANZOL|52=20161121-17:22:50.169|56=FIXSIM|10=244|
20161121-17:23:20.338 : 8=FIX.4.2|9=57|35=0|34=36|49=FIXSIM|52=20161121-17:23:20.338|56=BRANZOL|10=241|
20161121-17:23:20.338 : 8=FIX.4.2|9=57|35=0|34=36|49=BRANZOL|52=20161121-17:23:20.338|56=FIXSIM|10=241|
20161121-17:23:50.297 : 8=FIX.4.2|9=57|35=0|34=37|49=FIXSIM|52=20161121-17:23:50.296|56=BRANZOL|10=248|
20161121-17:23:50.297 : 8=FIX.4.2|9=57|35=0|34=37|49=BRANZOL|52=20161121-17:23:50.297|56=FIXSIM|10=249|
20161121-17:24:20.048 : 8=FIX.4.2|9=57|35=0|34=38|49=FIXSIM|52=20161121-17:24:20.047|56=BRANZOL|10=241|
20161121-17:24:20.048 : 8=FIX.4.2|9=57|35=0|34=38|49=BRANZOL|52=20161121-17:24:20.048|56=FIXSIM|10=242|
20161121-17:24:50.388 : 8=FIX.4.2|9=57|35=0|34=39|49=FIXSIM|52=20161121-17:24:50.388|56=BRANZOL|10=253|
20161121-17:24:50.388 : 8=FIX.4.2|9=57|35=0|34=39|49=BRANZOL|52=20161121-17:24:50.388|56=FIXSIM|10=253|
20161121-17:25:20.519 : 8=FIX.4.2|9=57|35=0|34=40|49=FIXSIM|52=20161121-17:25:20.519|56=BRANZOL|10=239|
20161121-17:25:20.519 : 8=FIX.4.2|9=57|35=0|34=40|49=BRANZOL|52=20161121-17:25:20.519|56=FIXSIM|10=239|
20161121-17:25:50.438 : 8=FIX.4.2|9=57|35=0|34=41|49=FIXSIM|52=20161121-17:25:50.438|56=BRANZOL|10=243|
20161121-17:25:50.438 : 8=FIX.4.2|9=57|35=0|34=41|49=BRANZOL|52=20161121-17:25:50.438|56=FIXSIM|10=243|
20161121-17:26:20.144 : 8=FIX.4.2|9=57|35=0|34=42|49=FIXSIM|52=20161121-17:26:20.144|56=BRANZOL|10=236|
20161121-17:26:20.145 : 8=FIX.4.2|9=57|35=0|34=42|49=BRANZOL|52=20161121-17:26:20.144|56=FIXSIM|10=236|
20161121-17:26:50.285 : 8=FIX.4.2|9=57|35=0|34=43|49=BRANZOL|52=20161121-17:26:50.285|56=FIXSIM|10=246|
20161121-17:26:50.285 : 8=FIX.4.2|9=57|35=0|34=43|49=FIXSIM|52=20161121-17:26:50.285|56=BRANZOL|10=246|
20161121-17:27:20.322 : 8=FIX.4.2|9=57|35=0|34=44|49=FIXSIM|52=20161121-17:27:20.322|56=BRANZOL|10=237|
20161121-17:27:20.322 : 8=FIX.4.2|9=57|35=0|34=44|49=BRANZOL|52=20161121-17:27:20.322|56=FIXSIM|10=237|
20161121-17:27:50.133 : 8=FIX.4.2|9=57|35=0|34=45|49=FIXSIM|52=20161121-17:27:50.133|56=BRANZOL|10=241|
20161121-17:27:50.133 : 8=FIX.4.2|9=57|35=0|34=45|49=BRANZOL|52=20161121-17:27:50.133|56=FIXSIM|10=241|
20161121-17:28:20.058 : 8=FIX.4.2|9=57|35=0|34=46|49=BRANZOL|52=20161121-17:28:20.058|56=FIXSIM|10=246|
20161121-17:28:20.059 : 8=FIX.4.2|9=57|35=0|34=46|49=FIXSIM|52=20161121-17:28:20.058|56=BRANZOL|10=246|
20161121-17:28:50.163 : 8=FIX.4.2|9=57|35=0|34=47|49=FIXSIM|52=20161121-17:28:50.162|56=BRANZOL|10=246|
20161121-17:28:50.163 : 8=FIX.4.2|9=57|35=0|34=47|49=BRANZOL|52=20161121-17:28:50.163|56=FIXSIM|10=247|
20161121-17:29:20.030 : 8=FIX.4.2|9=57|35=0|34=48|49=FIXSIM|52=20161121-17:29:20.030|56=BRANZOL|10=239|
20161121-17:29:20.031 : 8=FIX.4.2|9=57|35=0|34=48|49=BRANZOL|52=20161121-17:29:20.031|56=FIXSIM|10=240|
20161121-17:29:50.396 : 8=FIX.4.2|9=57|35=0|34=49|49=FIXSIM|52=20161121-17:29:50.396|56=BRANZOL|10=002|
20161121-17:29:50.396 : 8=FIX.4.2|9=57|35=0|34=49|49=BRANZOL|52=20161121-17:29:50.396|56=FIXSIM|10=002|
20161121-17:30:20.029 : 8=FIX.4.2|9=57|35=0|34=50|49=BRANZOL|52=20161121-17:30:20.029|56=FIXSIM|10=232|
20161121-17:30:20.029 : 8=FIX.4.2|9=57|35=0|34=50|49=FIXSIM|52=20161121-17:30:20.029|56=BRANZOL|10=232|
20161121-17:30:50.486 : 8=FIX.4.2|9=57|35=0|34=51|49=BRANZOL|52=20161121-17:30:50.486|56=FIXSIM|10=243|
20161121-17:30:50.487 : 8=FIX.4.2|9=57|35=0|34=51|49=FIXSIM|52=20161121-17:30:50.487|56=BRANZOL|10=244|
20161121-17:31:20.110 : 8=FIX.4.2|9=57|35=0|34=52|49=FIXSIM|52=20161121-17:31:20.110|56=BRANZOL|10=226|
20161121-17:31:20.111 : 8=FIX.4.2|9=57|35=0|34=52|49=BRANZOL|52=20161121-17:31:20.110|56=FIXSIM|10=226|
20161121-17:31:50.194 : 8=FIX.4.2|9=57|35=0|34=53|49=FIXSIM|52=20161121-17:31:50.194|56=BRANZOL|10=242|
20161121-17:31:50.194 : 8=FIX.4.2|9=57|35=0|34=53|49=BRANZOL|52=20161121-17:31:50.194|56=FIXSIM|10=242|
20161121-17:32:20.015 : 8=FIX.4.2|9=57|35=0|34=54|49=FIXSIM|52=20161121-17:32:20.015|56=BRANZOL|10=233|
20161121-17:32:20.015 : 8=FIX.4.2|9=57|35=0|34=54|49=BRANZOL|52=20161121-17:32:20.015|56=FIXSIM|10=233|
20161121-17:32:50.173 : 8=FIX.4.2|9=57|35=0|34=55|49=BRANZOL|52=20161121-17:32:50.173|56=FIXSIM|10=242|
20161121-17:32:50.174 : 8=FIX.4.2|9=57|35=0|34=55|49=FIXSIM|52=20161121-17:32:50.174|56=BRANZOL|10=243|
20161121-17:33:20.168 : 8=FIX.4.2|9=57|35=0|34=56|49=FIXSIM|52=20161121-17:33:20.168|56=BRANZOL|10=245|
20161121-17:33:20.168 : 8=FIX.4.2|9=57|35=0|34=56|49=BRANZOL|52=20161121-17:33:20.168|56=FIXSIM|10=245|
20161121-17:33:50.170 : 8=FIX.4.2|9=57|35=0|34=57|49=BRANZOL|52=20161121-17:33:50.169|56=FIXSIM|10=250|
20161121-17:33:50.170 : 8=FIX.4.2|9=57|35=0|34=57|49=FIXSIM|52=20161121-17:33:50.170|56=BRANZOL|10=242|
20161121-17:34:20.102 : 8=FIX.4.2|9=57|35=0|34=58|49=BRANZOL|52=20161121-17:34:20.102|56=FIXSIM|10=236|
20161121-17:34:20.102 : 8=FIX.4.2|9=57|35=0|34=58|49=FIXSIM|52=20161121-17:34:20.102|56=BRANZOL|10=236|
20161121-17:34:50.647 : 8=FIX.4.2|9=57|35=0|34=59|49=FIXSIM|52=20161121-17:34:50.647|56=BRANZOL|10=254|
20161121-17:34:50.648 : 8=FIX.4.2|9=57|35=0|34=59|49=BRANZOL|52=20161121-17:34:50.647|56=FIXSIM|10=254|
20161121-17:35:20.233 : 8=FIX.4.2|9=57|35=0|34=60|49=FIXSIM|52=20161121-17:35:20.233|56=BRANZOL|10=235|
20161121-17:35:20.233 : 8=FIX.4.2|9=57|35=0|34=60|49=BRANZOL|52=20161121-17:35:20.233|56=FIXSIM|10=235|
20161121-17:35:50.196 : 8=FIX.4.2|9=57|35=0|34=61|49=FIXSIM|52=20161121-17:35:50.196|56=BRANZOL|10=247|
20161121-17:35:50.196 : 8=FIX.4.2|9=57|35=0|34=61|49=BRANZOL|52=20161121-17:35:50.196|56=FIXSIM|10=247|
20161121-17:36:20.517 : 8=FIX.4.2|9=57|35=0|34=62|49=FIXSIM|52=20161121-17:36:20.516|56=BRANZOL|10=242|
20161121-17:36:20.517 : 8=FIX.4.2|9=57|35=0|34=62|49=BRANZOL|52=20161121-17:36:20.517|56=FIXSIM|10=243|
20161121-17:36:50.079 : 8=FIX.4.2|9=57|35=0|34=63|49=BRANZOL|52=20161121-17:36:50.079|56=FIXSIM|10=250|
20161121-17:36:50.080 : 8=FIX.4.2|9=57|35=0|34=63|49=FIXSIM|52=20161121-17:36:50.080|56=BRANZOL|10=242|
20161121-17:37:20.428 : 8=FIX.4.2|9=57|35=0|34=64|49=BRANZOL|52=20161121-17:37:20.428|56=FIXSIM|10=247|
20161121-17:37:20.429 : 8=FIX.4.2|9=57|35=0|34=64|49=FIXSIM|52=20161121-17:37:20.429|56=BRANZOL|10=248|
20161121-17:37:50.466 : 8=FIX.4.2|9=57|35=0|34=65|49=FIXSIM|52=20161121-17:37:50.464|56=BRANZOL|10=251|
20161121-17:37:50.467 : 8=FIX.4.2|9=57|35=0|34=65|49=BRANZOL|52=20161121-17:37:50.467|56=FIXSIM|10=254|
20161121-17:38:20.174 : 8=FIX.4.2|9=57|35=0|34=66|49=FIXSIM|52=20161121-17:38:20.174|56=BRANZOL|10=248|
20161121-17:38:20.174 : 8=FIX.4.2|9=57|35=0|34=66|49=BRANZOL|52=20161121-17:38:20.174|56=FIXSIM|10=248|
20161121-17:38:50.193 : 8=FIX.4.2|9=57|35=0|34=67|49=FIXSIM|52=20161121-17:38:50.193|56=BRANZOL|10=253|
20161121-17:38:50.193 : 8=FIX.4.2|9=57|35=0|34=67|49=BRANZOL|52=20161121-17:38:50.193|56=FIXSIM|10=253|
20161121-17:39:20.211 : 8=FIX.4.2|9=57|35=0|34=68|49=BRANZOL|52=20161121-17:39:20.211|56=FIXSIM|10=243|
20161121-17:39:20.212 : 8=FIX.4.2|9=57|35=0|34=68|49=FIXSIM|52=20161121-17:39:20.212|56=BRANZOL|10=244|
20161121-17:39:50.144 : 8=FIX.4.2|9=57|35=0|34=69|49=BRANZOL|52=20161121-17:39:50.143|56=FIXSIM|10=251|
20161121-17:39:50.144 : 8=FIX.4.2|9=57|35=0|34=69|49=FIXSIM|52=20161121-17:39:50.144|56=BRANZOL|10=252|
20161121-17:40:20.389 : 8=FIX.4.2|9=57|35=0|34=70|49=FIXSIM|52=20161121-17:40:20.389|56=BRANZOL|10=244|
20161121-17:40:20.390 : 8=FIX.4.2|9=57|35=0|34=70|49=BRANZOL|52=20161121-17:40:20.389|56=FIXSIM|10=244|
20161121-17:40:50.160 : 8=FIX.4.2|9=57|35=0|34=71|49=BRANZOL|52=20161121-17:40:50.160|56=FIXSIM|10=235|
20161121-17:40:50.161 : 8=FIX.4.2|9=57|35=0|34=71|49=FIXSIM|52=20161121-17:40:50.161|56=BRANZOL|10=236|
20161121-17:41:20.294 : 8=FIX.4.2|9=57|35=0|34=72|49=FIXSIM|52=20161121-17:41:20.294|56=BRANZOL|10=242|
20161121-17:41:20.295 : 8=FIX.4.2|9=57|35=0|34=72|49=BRANZOL|52=20161121-17:41:20.294|56=FIXSIM|10=242|
20161121-17:41:50.056 : 8=FIX.4.2|9=57|35=0|34=73|49=FIXSIM|52=20161121-17:41:50.055|56=BRANZOL|10=241|
20161121-17:41:50.056 : 8=FIX.4.2|9=57|35=0|34=73|49=BRANZOL|52=20161121-17:41:50.056|56=FIXSIM|10=242|
20161121-17:42:20.010 : 8=FIX.4.2|9=57|35=0|34=74|49=FIXSIM|52=20161121-17:42:20.010|56=BRANZOL|10=231|
20161121-17:42:20.010 : 8=FIX.4.2|9=57|35=0|34=74|49=BRANZOL|52=20161121-17:42:20.010|56=FIXSIM|10=231|
20161121-17:42:50.140 : 8=FIX.4.2|9=57|35=0|34=75|49=FIXSIM|52=20161121-17:42:50.139|56=BRANZOL|10=247|
20161121-17:42:50.140 : 8=FIX.4.2|9=57|35=0|34=75|49=BRANZOL|52=20161121-17:42:50.140|56=FIXSIM|10=239|
20161121-17:43:20.337 : 8=FIX.4.2|9=57|35=0|34=76|49=BRANZOL|52=20161121-17:43:20.337|56=FIXSIM|10=246|
20161121-17:43:20.338 : 8=FIX.4.2|9=57|35=0|34=76|49=FIXSIM|52=20161121-17:43:20.338|56=BRANZOL|10=247|
20161121-17:43:50.219 : 8=FIX.4.2|9=57|35=0|34=77|49=FIXSIM|52=20161121-17:43:50.219|56=BRANZOL|10=249|
20161121-17:43:50.220 : 8=FIX.4.2|9=57|35=0|34=77|49=BRANZOL|52=20161121-17:43:50.220|56=FIXSIM|10=241|
20161121-17:44:20.224 : 8=FIX.4.2|9=57|35=0|34=78|49=FIXSIM|52=20161121-17:44:20.224|56=BRANZOL|10=244|
20161121-17:44:20.224 : 8=FIX.4.2|9=57|35=0|34=78|49=BRANZOL|52=20161121-17:44:20.224|56=FIXSIM|10=244|
20161121-17:44:50.172 : 8=FIX.4.2|9=57|35=0|34=79|49=BRANZOL|52=20161121-17:44:50.172|56=FIXSIM|10=250|
20161121-17:44:50.172 : 8=FIX.4.2|9=57|35=0|34=79|49=FIXSIM|52=20161121-17:44:50.172|56=BRANZOL|10=250|
20161121-17:45:20.031 : 8=FIX.4.2|9=57|35=0|34=80|49=BRANZOL|52=20161121-17:45:20.030|56=FIXSIM|10=233|
20161121-17:45:20.031 : 8=FIX.4.2|9=57|35=0|34=80|49=FIXSIM|52=20161121-17:45:20.031|56=BRANZOL|10=234|
20161121-17:45:50.333 : 8=FIX.4.2|9=57|35=0|34=81|49=FIXSIM|52=20161121-17:45:50.333|56=BRANZOL|10=243|
20161121-17:45:50.333 : 8=FIX.4.2|9=57|35=0|34=81|49=BRANZOL|52=20161121-17:45:50.333|56=FIXSIM|10=243|
20161121-17:46:20.025 : 8=FIX.4.2|9=57|35=0|34=82|49=BRANZOL|52=20161121-17:46:20.024|56=FIXSIM|10=239|
20161121-17:46:20.025 : 8=FIX.4.2|9=57|35=0|34=82|49=FIXSIM|52=20161121-17:46:20.025|56=BRANZOL|10=240|
20161121-17:46:50.433 : 8=FIX.4.2|9=57|35=0|34=83|49=FIXSIM|52=20161121-17:46:50.433|56=BRANZOL|10=247|
20161121-17:46:50.433 : 8=FIX.4.2|9=57|35=0|34=83|49=BRANZOL|52=20161121-17:46:50.433|56=FIXSIM|10=247|
20161121-17:47:20.345 : 8=FIX.4.2|9=57|35=0|34=84|49=FIXSIM|52=20161121-17:47:20.345|56=BRANZOL|10=248|
20161121-17:47:20.345 : 8=FIX.4.2|9=57|35=0|34=84|49=BRANZOL|52=20161121-17:47:20.345|56=FIXSIM|10=248|
20161121-17:47:50.253 : 8=FIX.4.2|9=57|35=0|34=85|49=FIXSIM|52=20161121-17:47:50.252|56=BRANZOL|10=249|
20161121-17:47:50.253 : 8=FIX.4.2|9=57|35=0|34=85|49=BRANZOL|52=20161121-17:47:50.253|56=FIXSIM|10=250|
20161121-17:48:20.144 : 8=FIX.4.2|9=57|35=0|34=86|49=FIXSIM|52=20161121-17:48:20.144|56=BRANZOL|10=248|
20161121-17:48:20.144 : 8=FIX.4.2|9=57|35=0|34=86|49=BRANZOL|52=20161121-17:48:20.144|56=FIXSIM|10=248|
20161121-17:48:50.219 : 8=FIX.4.2|9=57|35=0|34=87|49=BRANZOL|52=20161121-17:48:50.219|56=FIXSIM|10=255|
20161121-17:48:50.220 : 8=FIX.4.2|9=57|35=0|34=87|49=FIXSIM|52=20161121-17:48:50.220|56=BRANZOL|10=247|
20161121-17:49:20.203 : 8=FIX.4.2|9=57|35=0|34=88|49=BRANZOL|52=20161121-17:49:20.203|56=FIXSIM|10=247|
20161121-17:49:20.203 : 8=FIX.4.2|9=57|35=0|34=88|49=FIXSIM|52=20161121-17:49:20.203|56=BRANZOL|10=247|
20161121-17:49:50.097 : 8=FIX.4.2|9=57|35=0|34=89|49=BRANZOL|52=20161121-17:49:50.097|56=FIXSIM|10=006|
20161121-17:49:50.098 : 8=FIX.4.2|9=57|35=0|34=89|49=FIXSIM|52=20161121-17:49:50.098|56=BRANZOL|10=007|
20161121-17:50:20.089 : 8=FIX.4.2|9=57|35=0|34=90|49=FIXSIM|52=20161121-17:50:20.089|56=BRANZOL|10=244|
20161121-17:50:20.090 : 8=FIX.4.2|9=57|35=0|34=90|49=BRANZOL|52=20161121-17:50:20.090|56=FIXSIM|10=236|
20161121-17:50:50.341 : 8=FIX.4.2|9=57|35=0|34=91|49=FIXSIM|52=20161121-17:50:50.341|56=BRANZOL|10=239|
20161121-17:50:50.341 : 8=FIX.4.2|9=57|35=0|34=91|49=BRANZOL|52=20161121-17:50:50.341|56=FIXSIM|10=239|
20161121-17:51:20.403 : 8=FIX.4.2|9=57|35=0|34=92|49=FIXSIM|52=20161121-17:51:20.402|56=BRANZOL|10=236|
20161121-17:51:20.403 : 8=FIX.4.2|9=57|35=0|34=92|49=BRANZOL|52=20161121-17:51:20.403|56=FIXSIM|10=237|
20161121-17:51:50.243 : 8=FIX.4.2|9=57|35=0|34=93|49=FIXSIM|52=20161121-17:51:50.242|56=BRANZOL|10=242|
20161121-17:51:50.243 : 8=FIX.4.2|9=57|35=0|34=93|49=BRANZOL|52=20161121-17:51:50.243|56=FIXSIM|10=243|
20161121-17:52:20.246 : 8=FIX.4.2|9=57|35=0|34=94|49=FIXSIM|52=20161121-17:52:20.246|56=BRANZOL|10=245|
20161121-17:52:20.246 : 8=FIX.4.2|9=57|35=0|34=94|49=BRANZOL|52=20161121-17:52:20.246|56=FIXSIM|10=245|
20161121-17:52:50.358 : 8=FIX.4.2|9=57|35=0|34=95|49=FIXSIM|52=20161121-17:52:50.358|56=BRANZOL|10=253|
20161121-17:52:50.359 : 8=FIX.4.2|9=57|35=0|34=95|49=BRANZOL|52=20161121-17:52:50.358|56=FIXSIM|10=253|
20161121-17:53:20.121 : 8=FIX.4.2|9=57|35=0|34=96|49=FIXSIM|52=20161121-17:53:20.120|56=BRANZOL|10=239|
20161121-17:53:20.121 : 8=FIX.4.2|9=57|35=0|34=96|49=BRANZOL|52=20161121-17:53:20.121|56=FIXSIM|10=240|
20161121-17:53:50.089 : 8=FIX.4.2|9=57|35=0|34=97|49=BRANZOL|52=20161121-17:53:50.089|56=FIXSIM|10=001|
20161121-17:53:50.090 : 8=FIX.4.2|9=57|35=0|34=97|49=FIXSIM|52=20161121-17:53:50.089|56=BRANZOL|10=001|
20161121-17:54:20.158 : 8=FIX.4.2|9=57|35=0|34=98|49=FIXSIM|52=20161121-17:54:20.157|56=BRANZOL|10=252|
20161121-17:54:20.158 : 8=FIX.4.2|9=57|35=0|34=98|49=BRANZOL|52=20161121-17:54:20.158|56=FIXSIM|10=253|
20161121-17:54:50.104 : 8=FIX.4.2|9=57|35=0|34=99|49=FIXSIM|52=20161121-17:54:50.103|56=BRANZOL|10=247|
20161121-17:54:50.104 : 8=FIX.4.2|9=57|35=0|34=99|49=BRANZOL|52=20161121-17:54:50.104|56=FIXSIM|10=248|
20161121-17:55:20.226 : 8=FIX.4.2|9=58|35=0|34=100|49=FIXSIM|52=20161121-17:55:20.226|56=BRANZOL|10=027|
20161121-17:55:20.226 : 8=FIX.4.2|9=58|35=0|34=100|49=BRANZOL|52=20161121-17:55:20.226|56=FIXSIM|10=027|
20161121-17:55:50.084 : 8=FIX.4.2|9=58|35=0|34=101|49=FIXSIM|52=20161121-17:55:50.084|56=BRANZOL|10=033|
20161121-17:55:50.085 : 8=FIX.4.2|9=58|35=0|34=101|49=BRANZOL|52=20161121-17:55:50.084|56=FIXSIM|10=033|
20161121-17:56:20.247 : 8=FIX.4.2|9=58|35=0|34=102|49=FIXSIM|52=20161121-17:56:20.247|56=BRANZOL|10=033|
20161121-17:56:20.248 : 8=FIX.4.2|9=58|35=0|34=102|49=BRANZOL|52=20161121-17:56:20.248|56=FIXSIM|10=034|
20161121-17:56:50.280 : 8=FIX.4.2|9=58|35=0|34=103|49=FIXSIM|52=20161121-17:56:50.280|56=BRANZOL|10=034|
20161121-17:56:50.281 : 8=FIX.4.2|9=58|35=0|34=103|49=BRANZOL|52=20161121-17:56:50.281|56=FIXSIM|10=035|
20161121-17:57:20.091 : 8=FIX.4.2|9=58|35=0|34=104|49=FIXSIM|52=20161121-17:57:20.091|56=BRANZOL|10=033|
20161121-17:57:20.092 : 8=FIX.4.2|9=58|35=0|34=104|49=BRANZOL|52=20161121-17:57:20.091|56=FIXSIM|10=033|
20161121-17:57:50.075 : 8=FIX.4.2|9=58|35=0|34=105|49=BRANZOL|52=20161121-17:57:50.075|56=FIXSIM|10=039|
20161121-17:57:50.075 : 8=FIX.4.2|9=58|35=0|34=105|49=FIXSIM|52=20161121-17:57:50.075|56=BRANZOL|10=039|
20161121-17:58:20.239 : 8=FIX.4.2|9=58|35=0|34=106|49=FIXSIM|52=20161121-17:58:20.239|56=BRANZOL|10=040|
20161121-17:58:20.240 : 8=FIX.4.2|9=58|35=0|34=106|49=BRANZOL|52=20161121-17:58:20.239|56=FIXSIM|10=040|
20161121-17:58:50.019 : 8=FIX.4.2|9=58|35=0|34=107|49=BRANZOL|52=20161121-17:58:50.019|56=FIXSIM|10=040|
20161121-17:58:50.019 : 8=FIX.4.2|9=58|35=0|34=107|49=FIXSIM|52=20161121-17:58:50.019|56=BRANZOL|10=040|
20161121-17:59:20.038 : 8=FIX.4.2|9=58|35=0|34=108|49=FIXSIM|52=20161121-17:59:20.038|56=BRANZOL|10=040|
20161121-17:59:20.038 : 8=FIX.4.2|9=58|35=0|34=108|49=BRANZOL|52=20161121-17:59:20.038|56=FIXSIM|10=040|
20161121-17:59:50.193 : 8=FIX.4.2|9=58|35=0|34=109|49=FIXSIM|52=20161121-17:59:50.193|56=BRANZOL|10=046|
20161121-17:59:50.193 : 8=FIX.4.2|9=58|35=0|34=109|49=BRANZOL|52=20161121-17:59:50.193|56=FIXSIM|10=046|
20161121-18:00:20.152 : 8=FIX.4.2|9=58|35=0|34=110|49=FIXSIM|52=20161121-18:00:20.151|56=BRANZOL|10=016|
20161121-18:00:20.152 : 8=FIX.4.2|9=58|35=0|34=110|49=BRANZOL|52=20161121-18:00:20.152|56=FIXSIM|10=017|
20161121-18:00:50.089 : 8=FIX.4.2|9=58|35=0|34=111|49=FIXSIM|52=20161121-18:00:50.088|56=BRANZOL|10=029|
20161121-18:00:50.089 : 8=FIX.4.2|9=58|35=0|34=111|49=BRANZOL|52=20161121-18:00:50.089|56=FIXSIM|10=030|
20161121-18:01:20.142 : 8=FIX.4.2|9=58|35=0|34=112|49=BRANZOL|52=20161121-18:01:20.142|56=FIXSIM|10=019|
20161121-18:01:20.142 : 8=FIX.4.2|9=58|35=0|34=112|49=FIXSIM|52=20161121-18:01:20.142|56=BRANZOL|10=019|
20161121-18:01:50.051 : 8=FIX.4.2|9=58|35=0|34=113|49=FIXSIM|52=20161121-18:01:50.050|56=BRANZOL|10=021|
20161121-18:01:50.051 : 8=FIX.4.2|9=58|35=0|34=113|49=BRANZOL|52=20161121-18:01:50.051|56=FIXSIM|10=022|
20161121-18:02:20.000 : 8=FIX.4.2|9=58|35=0|34=114|49=FIXSIM|52=20161121-18:02:20.000|56=BRANZOL|10=015|
20161121-18:02:20.001 : 8=FIX.4.2|9=58|35=0|34=114|49=BRANZOL|52=20161121-18:02:20.001|56=FIXSIM|10=016|
20161121-18:02:50.082 : 8=FIX.4.2|9=58|35=0|34=115|49=FIXSIM|52=20161121-18:02:50.082|56=BRANZOL|10=029|
20161121-18:02:50.083 : 8=FIX.4.2|9=58|35=0|34=115|49=BRANZOL|52=20161121-18:02:50.083|56=FIXSIM|10=030|
20161121-18:03:20.015 : 8=FIX.4.2|9=58|35=0|34=116|49=FIXSIM|52=20161121-18:03:20.015|56=BRANZOL|10=024|
20161121-18:03:20.015 : 8=FIX.4.2|9=58|35=0|34=116|49=BRANZOL|52=20161121-18:03:20.015|56=FIXSIM|10=024|
20161121-18:03:50.301 : 8=FIX.4.2|9=58|35=0|34=117|49=BRANZOL|52=20161121-18:03:50.301|56=FIXSIM|10=026|
20161121-18:03:50.302 : 8=FIX.4.2|9=58|35=0|34=117|49=FIXSIM|52=20161121-18:03:50.302|56=BRANZOL|10=027|
20161121-18:04:20.232 : 8=FIX.4.2|9=58|35=0|34=118|49=FIXSIM|52=20161121-18:04:20.232|56=BRANZOL|10=028|
20161121-18:04:20.233 : 8=FIX.4.2|9=58|35=0|34=118|49=BRANZOL|52=20161121-18:04:20.233|56=FIXSIM|10=029|
20161121-18:04:50.010 : 8=FIX.4.2|9=58|35=0|34=119|49=FIXSIM|52=20161121-18:04:50.010|56=BRANZOL|10=026|
20161121-18:04:50.011 : 8=FIX.4.2|9=58|35=0|34=119|49=BRANZOL|52=20161121-18:04:50.011|56=FIXSIM|10=027|
20161121-18:05:20.628 : 8=FIX.4.2|9=58|35=0|34=120|49=FIXSIM|52=20161121-18:05:20.628|56=BRANZOL|10=031|
20161121-18:05:20.628 : 8=FIX.4.2|9=58|35=0|34=120|49=BRANZOL|52=20161121-18:05:20.628|56=FIXSIM|10=031|
20161121-18:05:50.113 : 8=FIX.4.2|9=58|35=0|34=121|49=FIXSIM|52=20161121-18:05:50.113|56=BRANZOL|10=024|
20161121-18:05:50.113 : 8=FIX.4.2|9=58|35=0|34=121|49=BRANZOL|52=20161121-18:05:50.113|56=FIXSIM|10=024|
20161121-18:06:20.424 : 8=FIX.4.2|9=58|35=0|34=122|49=FIXSIM|52=20161121-18:06:20.423|56=BRANZOL|10=027|
20161121-18:06:20.424 : 8=FIX.4.2|9=58|35=0|34=122|49=BRANZOL|52=20161121-18:06:20.424|56=FIXSIM|10=028|
20161121-18:06:50.062 : 8=FIX.4.2|9=58|35=0|34=123|49=BRANZOL|52=20161121-18:06:50.062|56=FIXSIM|10=030|
20161121-18:06:50.062 : 8=FIX.4.2|9=58|35=0|34=123|49=FIXSIM|52=20161121-18:06:50.062|56=BRANZOL|10=030|
20161121-18:07:20.072 : 8=FIX.4.2|9=58|35=0|34=124|49=FIXSIM|52=20161121-18:07:20.072|56=BRANZOL|10=030|
20161121-18:07:20.072 : 8=FIX.4.2|9=58|35=0|34=124|49=BRANZOL|52=20161121-18:07:20.072|56=FIXSIM|10=030|
20161121-18:07:50.206 : 8=FIX.4.2|9=58|35=0|34=125|49=BRANZOL|52=20161121-18:07:50.205|56=FIXSIM|10=032|
20161121-18:07:50.206 : 8=FIX.4.2|9=58|35=0|34=125|49=FIXSIM|52=20161121-18:07:50.206|56=BRANZOL|10=033|
20161121-18:08:20.217 : 8=FIX.4.2|9=58|35=0|34=126|49=BRANZOL|52=20161121-18:08:20.217|56=FIXSIM|10=034|
20161121-18:08:20.218 : 8=FIX.4.2|9=58|35=0|34=126|49=FIXSIM|52=20161121-18:08:20.218|56=BRANZOL|10=035|
20161121-18:08:50.114 : 8=FIX.4.2|9=58|35=0|34=127|49=BRANZOL|52=20161121-18:08:50.114|56=FIXSIM|10=034|
20161121-18:08:50.115 : 8=FIX.4.2|9=58|35=0|34=127|49=FIXSIM|52=20161121-18:08:50.115|56=BRANZOL|10=035|
20161121-18:09:20.452 : 8=FIX.4.2|9=58|35=0|34=128|49=FIXSIM|52=20161121-18:09:20.452|56=BRANZOL|10=038|
20161121-18:09:20.452 : 8=FIX.4.2|9=58|35=0|34=128|49=BRANZOL|52=20161121-18:09:20.452|56=FIXSIM|10=038|
20161121-18:09:50.120 : 8=FIX.4.2|9=58|35=0|34=129|49=BRANZOL|52=20161121-18:09:50.120|56=FIXSIM|10=034|
20161121-18:09:50.120 : 8=FIX.4.2|9=58|35=0|34=129|49=FIXSIM|52=20161121-18:09:50.120|56=BRANZOL|10=034|
20161121-18:10:20.132 : 8=FIX.4.2|9=58|35=0|34=130|49=FIXSIM|52=20161121-18:10:20.131|56=BRANZOL|10=017|
20161121-18:10:20.132 : 8=FIX.4.2|9=58|35=0|34=130|49=BRANZOL|52=20161121-18:10:20.132|56=FIXSIM|10=018|
20161121-18:10:50.277 : 8=FIX.4.2|9=58|35=0|34=131|49=BRANZOL|52=20161121-18:10:50.277|56=FIXSIM|10=032|
20161121-18:10:50.278 : 8=FIX.4.2|9=58|35=0|34=131|49=FIXSIM|52=20161121-18:10:50.278|56=BRANZOL|10=033|
20161121-18:11:20.305 : 8=FIX.4.2|9=58|35=0|34=132|49=BRANZOL|52=20161121-18:11:20.305|56=FIXSIM|10=023|
20161121-18:11:20.306 : 8=FIX.4.2|9=58|35=0|34=132|49=FIXSIM|52=20161121-18:11:20.306|56=BRANZOL|10=024|
20161121-18:11:50.207 : 8=FIX.4.2|9=58|35=0|34=133|49=BRANZOL|52=20161121-18:11:50.207|56=FIXSIM|10=028|
20161121-18:11:50.207 : 8=FIX.4.2|9=58|35=0|34=133|49=FIXSIM|52=20161121-18:11:50.207|56=BRANZOL|10=028|
20161121-18:12:20.001 : 8=FIX.4.2|9=58|35=0|34=134|49=BRANZOL|52=20161121-18:12:20.001|56=FIXSIM|10=019|
20161121-18:12:20.002 : 8=FIX.4.2|9=58|35=0|34=134|49=FIXSIM|52=20161121-18:12:20.002|56=BRANZOL|10=020|
20161121-18:12:50.120 : 8=FIX.4.2|9=58|35=0|34=135|49=FIXSIM|52=20161121-18:12:50.119|56=BRANZOL|10=033|
20161121-18:12:50.120 : 8=FIX.4.2|9=58|35=0|34=135|49=BRANZOL|52=20161121-18:12:50.120|56=FIXSIM|10=025|
20161121-18:13:20.067 : 8=FIX.4.2|9=58|35=0|34=136|49=FIXSIM|52=20161121-18:13:20.067|56=BRANZOL|10=034|
20161121-18:13:20.068 : 8=FIX.4.2|9=58|35=0|34=136|49=BRANZOL|52=20161121-18:13:20.067|56=FIXSIM|10=034|
20161121-18:13:50.200 : 8=FIX.4.2|9=58|35=0|34=137|49=BRANZOL|52=20161121-18:13:50.200|56=FIXSIM|10=027|
20161121-18:13:50.201 : 8=FIX.4.2|9=58|35=0|34=137|49=FIXSIM|52=20161121-18:13:50.201|56=BRANZOL|10=028|
20161121-18:14:20.207 : 8=FIX.4.2|9=58|35=0|34=138|49=BRANZOL|52=20161121-18:14:20.207|56=FIXSIM|10=033|
20161121-18:14:20.207 : 8=FIX.4.2|9=58|35=0|34=138|49=FIXSIM|52=20161121-18:14:20.207|56=BRANZOL|10=033|
20161121-18:14:50.088 : 8=FIX.4.2|9=58|35=0|34=139|49=BRANZOL|52=20161121-18:14:50.088|56=FIXSIM|10=044|
20161121-18:14:50.089 : 8=FIX.4.2|9=58|35=0|34=139|49=FIXSIM|52=20161121-18:14:50.089|56=BRANZOL|10=045|
20161121-18:15:20.229 : 8=FIX.4.2|9=58|35=0|34=140|49=FIXSIM|52=20161121-18:15:20.228|56=BRANZOL|10=030|
20161121-18:15:20.229 : 8=FIX.4.2|9=58|35=0|34=140|49=BRANZOL|52=20161121-18:15:20.229|56=FIXSIM|10=031|
20161121-18:15:50.185 : 8=FIX.4.2|9=58|35=0|34=141|49=FIXSIM|52=20161121-18:15:50.185|56=BRANZOL|10=036|
20161121-18:15:50.185 : 8=FIX.4.2|9=58|35=0|34=141|49=BRANZOL|52=20161121-18:15:50.185|56=FIXSIM|10=036|
20161121-18:16:20.359 : 8=FIX.4.2|9=58|35=0|34=142|49=BRANZOL|52=20161121-18:16:20.359|56=FIXSIM|10=038|
20161121-18:16:20.360 : 8=FIX.4.2|9=58|35=0|34=142|49=FIXSIM|52=20161121-18:16:20.359|56=BRANZOL|10=038|
20161121-18:16:50.397 : 8=FIX.4.2|9=58|35=0|34=143|49=BRANZOL|52=20161121-18:16:50.397|56=FIXSIM|10=044|
20161121-18:16:50.398 : 8=FIX.4.2|9=58|35=0|34=143|49=FIXSIM|52=20161121-18:16:50.397|56=BRANZOL|10=044|
20161121-18:17:20.298 : 8=FIX.4.2|9=58|35=0|34=144|49=BRANZOL|52=20161121-18:17:20.298|56=FIXSIM|10=043|
20161121-18:17:20.298 : 8=FIX.4.2|9=58|35=0|34=144|49=FIXSIM|52=20161121-18:17:20.298|56=BRANZOL|10=043|
20161121-18:17:50.066 : 8=FIX.4.2|9=58|35=0|34=145|49=BRANZOL|52=20161121-18:17:50.066|56=FIXSIM|10=040|
20161121-18:17:50.067 : 8=FIX.4.2|9=58|35=0|34=145|49=FIXSIM|52=20161121-18:17:50.066|56=BRANZOL|10=040|
20161121-18:18:20.362 : 8=FIX.4.2|9=58|35=0|34=146|49=BRANZOL|52=20161121-18:18:20.362|56=FIXSIM|10=038|
20161121-18:18:20.363 : 8=FIX.4.2|9=58|35=0|34=146|49=FIXSIM|52=20161121-18:18:20.362|56=BRANZOL|10=038|
20161121-18:18:50.057 : 8=FIX.4.2|9=58|35=0|34=147|49=FIXSIM|52=20161121-18:18:50.057|56=BRANZOL|10=043|
20161121-18:18:50.058 : 8=FIX.4.2|9=58|35=0|34=147|49=BRANZOL|52=20161121-18:18:50.057|56=FIXSIM|10=043|
20161121-18:19:20.099 : 8=FIX.4.2|9=58|35=0|34=148|49=BRANZOL|52=20161121-18:19:20.097|56=FIXSIM|10=046|
20161121-18:19:20.101 : 8=FIX.4.2|9=58|35=0|34=148|49=FIXSIM|52=20161121-18:19:20.100|56=BRANZOL|10=031|
20161121-18:19:50.231 : 8=FIX.4.2|9=58|35=0|34=149|49=FIXSIM|52=20161121-18:19:50.230|56=BRANZOL|10=039|
20161121-18:19:50.231 : 8=FIX.4.2|9=58|35=0|34=149|49=BRANZOL|52=20161121-18:19:50.231|56=FIXSIM|10=040|
20161121-18:20:20.145 : 8=FIX.4.2|9=58|35=0|34=150|49=FIXSIM|52=20161121-18:20:20.145|56=BRANZOL|10=025|
20161121-18:20:20.145 : 8=FIX.4.2|9=58|35=0|34=150|49=BRANZOL|52=20161121-18:20:20.145|56=FIXSIM|10=025|
20161121-18:20:50.375 : 8=FIX.4.2|9=58|35=0|34=151|49=BRANZOL|52=20161121-18:20:50.375|56=FIXSIM|10=034|
20161121-18:20:50.376 : 8=FIX.4.2|9=58|35=0|34=151|49=FIXSIM|52=20161121-18:20:50.376|56=BRANZOL|10=035|
20161121-18:21:20.448 : 8=FIX.4.2|9=58|35=0|34=152|49=BRANZOL|52=20161121-18:21:20.448|56=FIXSIM|10=034|
20161121-18:21:20.448 : 8=FIX.4.2|9=58|35=0|34=152|49=FIXSIM|52=20161121-18:21:20.448|56=BRANZOL|10=034|
20161121-18:21:50.374 : 8=FIX.4.2|9=58|35=0|34=153|49=BRANZOL|52=20161121-18:21:50.374|56=FIXSIM|10=036|
20161121-18:21:50.375 : 8=FIX.4.2|9=58|35=0|34=153|49=FIXSIM|52=20161121-18:21:50.374|56=BRANZOL|10=036|
20161121-18:22:20.153 : 8=FIX.4.2|9=58|35=0|34=154|49=BRANZOL|52=20161121-18:22:20.153|56=FIXSIM|10=030|
20161121-18:22:20.153 : 8=FIX.4.2|9=58|35=0|34=154|49=FIXSIM|52=20161121-18:22:20.153|56=BRANZOL|10=030|
20161121-18:22:50.402 : 8=FIX.4.2|9=58|35=0|34=155|49=BRANZOL|52=20161121-18:22:50.402|56=FIXSIM|10=031|
20161121-18:22:50.403 : 8=FIX.4.2|9=58|35=0|34=155|49=FIXSIM|52=20161121-18:22:50.403|56=BRANZOL|10=032|
20161121-18:23:20.486 : 8=FIX.4.2|9=58|35=0|34=156|49=BRANZOL|52=20161121-18:23:20.486|56=FIXSIM|10=042|
20161121-18:23:20.487 : 8=FIX.4.2|9=58|35=0|34=156|49=FIXSIM|52=20161121-18:23:20.487|56=BRANZOL|10=043|
20161121-18:23:50.411 : 8=FIX.4.2|9=58|35=0|34=157|49=FIXSIM|52=20161121-18:23:50.411|56=BRANZOL|10=034|
20161121-18:23:50.411 : 8=FIX.4.2|9=58|35=0|34=157|49=BRANZOL|52=20161121-18:23:50.411|56=FIXSIM|10=034|
20161121-18:24:20.096 : 8=FIX.4.2|9=58|35=0|34=158|49=FIXSIM|52=20161121-18:24:20.096|56=BRANZOL|10=042|
20161121-18:24:20.096 : 8=FIX.4.2|9=58|35=0|34=158|49=BRANZOL|52=20161121-18:24:20.096|56=FIXSIM|10=042|
20161121-18:24:50.316 : 8=FIX.4.2|9=58|35=0|34=159|49=BRANZOL|52=20161121-18:24:50.316|56=FIXSIM|10=041|
20161121-18:24:50.317 : 8=FIX.4.2|9=58|35=0|34=159|49=FIXSIM|52=20161121-18:24:50.317|56=BRANZOL|10=042|
20161121-18:25:20.291 : 8=FIX.4.2|9=58|35=0|34=160|49=FIXSIM|52=20161121-18:25:20.291|56=BRANZOL|10=033|
20161121-18:25:20.291 : 8=FIX.4.2|9=58|35=0|34=160|49=BRANZOL|52=20161121-18:25:20.291|56=FIXSIM|10=033|
20161121-18:25:50.016 : 8=FIX.4.2|9=58|35=0|34=161|49=FIXSIM|52=20161121-18:25:50.016|56=BRANZOL|10=032|
20161121-18:25:50.016 : 8=FIX.4.2|9=58|35=0|34=161|49=BRANZOL|52=20161121-18:25:50.016|56=FIXSIM|10=032|
20161121-18:26:20.248 : 8=FIX.4.2|9=58|35=0|34=162|49=FIXSIM|52=20161121-18:26:20.247|56=BRANZOL|10=037|
20161121-18:26:20.248 : 8=FIX.4.2|9=58|35=0|34=162|49=BRANZOL|52=20161121-18:26:20.248|56=FIXSIM|10=038|
20161121-18:26:50.218 : 8=FIX.4.2|9=58|35=0|34=163|49=FIXSIM|52=20161121-18:26:50.218|56=BRANZOL|10=039|
20161121-18:26:50.218 : 8=FIX.4.2|9=58|35=0|34=163|49=BRANZOL|52=20161121-18:26:50.218|56=FIXSIM|10=039|
20161121-18:27:20.254 : 8=FIX.4.2|9=58|35=0|34=164|49=BRANZOL|52=20161121-18:27:20.253|56=FIXSIM|10=037|
20161121-18:27:20.254 : 8=FIX.4.2|9=58|35=0|34=164|49=FIXSIM|52=20161121-18:27:20.254|56=BRANZOL|10=038|
20161121-18:27:50.128 : 8=FIX.4.2|9=58|35=0|34=165|49=BRANZOL|52=20161121-18:27:50.128|56=FIXSIM|10=042|
20161121-18:27:50.129 : 8=FIX.4.2|9=58|35=0|34=165|49=FIXSIM|52=20161121-18:27:50.129|56=BRANZOL|10=043|
20161121-18:28:20.027 : 8=FIX.4.2|9=58|35=0|34=166|49=FIXSIM|52=20161121-18:28:20.027|56=BRANZOL|10=039|
20161121-18:28:20.027 : 8=FIX.4.2|9=58|35=0|34=166|49=BRANZOL|52=20161121-18:28:20.027|56=FIXSIM|10=039|
20161121-18:28:50.146 : 8=FIX.4.2|9=58|35=0|34=167|49=BRANZOL|52=20161121-18:28:50.145|56=FIXSIM|10=044|
20161121-18:28:50.146 : 8=FIX.4.2|9=58|35=0|34=167|49=FIXSIM|52=20161121-18:28:50.146|56=BRANZOL|10=045|
20161121-18:29:20.086 : 8=FIX.4.2|9=58|35=0|34=168|49=BRANZOL|52=20161121-18:29:20.086|56=FIXSIM|10=047|
20161121-18:29:20.087 : 8=FIX.4.2|9=58|35=0|34=168|49=FIXSIM|52=20161121-18:29:20.087|56=BRANZOL|10=048|
20161121-18:29:50.422 : 8=FIX.4.2|9=58|35=0|34=169|49=BRANZOL|52=20161121-18:29:50.422|56=FIXSIM|10=045|
20161121-18:29:50.423 : 8=FIX.4.2|9=58|35=0|34=169|49=FIXSIM|52=20161121-18:29:50.423|56=BRANZOL|10=046|
20161121-18:30:20.569 : 8=FIX.4.2|9=58|35=0|34=170|49=BRANZOL|52=20161121-18:30:20.568|56=FIXSIM|10=037|
20161121-18:30:20.569 : 8=FIX.4.2|9=58|35=0|34=170|49=FIXSIM|52=20161121-18:30:20.569|56=BRANZOL|10=038|
20161121-18:30:50.470 : 8=FIX.4.2|9=58|35=0|34=171|49=FIXSIM|52=20161121-18:30:50.470|56=BRANZOL|10=033|
20161121-18:30:50.470 : 8=FIX.4.2|9=58|35=0|34=171|49=BRANZOL|52=20161121-18:30:50.470|56=FIXSIM|10=033|
20161121-18:31:20.082 : 8=FIX.4.2|9=58|35=0|34=172|49=FIXSIM|52=20161121-18:31:20.082|56=BRANZOL|10=031|
20161121-18:31:20.083 : 8=FIX.4.2|9=58|35=0|34=172|49=BRANZOL|52=20161121-18:31:20.082|56=FIXSIM|10=031|
20161121-18:31:50.078 : 8=FIX.4.2|9=58|35=0|34=173|49=FIXSIM|52=20161121-18:31:50.078|56=BRANZOL|10=040|
20161121-18:31:50.078 : 8=FIX.4.2|9=58|35=0|34=173|49=BRANZOL|52=20161121-18:31:50.078|56=FIXSIM|10=040|
20161121-18:32:20.070 : 8=FIX.4.2|9=58|35=0|34=174|49=BRANZOL|52=20161121-18:32:20.070|56=FIXSIM|10=031|
20161121-18:32:20.070 : 8=FIX.4.2|9=58|35=0|34=174|49=FIXSIM|52=20161121-18:32:20.070|56=BRANZOL|10=031|
20161121-18:32:50.134 : 8=FIX.4.2|9=58|35=0|34=175|49=FIXSIM|52=20161121-18:32:50.133|56=BRANZOL|10=035|
20161121-18:32:50.134 : 8=FIX.4.2|9=58|35=0|34=175|49=BRANZOL|52=20161121-18:32:50.134|56=FIXSIM|10=036|
20161121-18:33:20.283 : 8=FIX.4.2|9=58|35=0|34=176|49=BRANZOL|52=20161121-18:33:20.283|56=FIXSIM|10=040|
20161121-18:33:20.284 : 8=FIX.4.2|9=58|35=0|34=176|49=FIXSIM|52=20161121-18:33:20.284|56=BRANZOL|10=041|
20161121-18:33:50.234 : 8=FIX.4.2|9=58|35=0|34=177|49=BRANZOL|52=20161121-18:33:50.234|56=FIXSIM|10=040|
20161121-18:33:50.235 : 8=FIX.4.2|9=58|35=0|34=177|49=FIXSIM|52=20161121-18:33:50.234|56=BRANZOL|10=040|
20161121-18:34:20.533 : 8=FIX.4.2|9=58|35=0|34=178|49=BRANZOL|52=20161121-18:34:20.533|56=FIXSIM|10=041|
20161121-18:34:20.534 : 8=FIX.4.2|9=58|35=0|34=178|49=FIXSIM|52=20161121-18:34:20.533|56=BRANZOL|10=041|
20161121-18:34:50.082 : 8=FIX.4.2|9=58|35=0|34=179|49=BRANZOL|52=20161121-18:34:50.081|56=FIXSIM|10=043|
20161121-18:34:50.082 : 8=FIX.4.2|9=58|35=0|34=179|49=FIXSIM|52=20161121-18:34:50.082|56=BRANZOL|10=044|
20161121-18:35:20.408 : 8=FIX.4.2|9=58|35=0|34=180|49=FIXSIM|52=20161121-18:35:20.407|56=BRANZOL|10=035|
20161121-18:35:20.408 : 8=FIX.4.2|9=58|35=0|34=180|49=BRANZOL|52=20161121-18:35:20.408|56=FIXSIM|10=036|
20161121-18:35:50.109 : 8=FIX.4.2|9=58|35=0|34=181|49=BRANZOL|52=20161121-18:35:50.109|56=FIXSIM|10=038|
20161121-18:35:50.110 : 8=FIX.4.2|9=58|35=0|34=181|49=FIXSIM|52=20161121-18:35:50.109|56=BRANZOL|10=038|
20161121-18:36:20.142 : 8=FIX.4.2|9=58|35=0|34=182|49=BRANZOL|52=20161121-18:36:20.142|56=FIXSIM|10=034|
20161121-18:36:20.143 : 8=FIX.4.2|9=58|35=0|34=182|49=FIXSIM|52=20161121-18:36:20.142|56=BRANZOL|10=034|
20161121-18:36:50.011 : 8=FIX.4.2|9=58|35=0|34=183|49=FIXSIM|52=20161121-18:36:50.011|56=BRANZOL|10=033|
20161121-18:36:50.011 : 8=FIX.4.2|9=58|35=0|34=183|49=BRANZOL|52=20161121-18:36:50.011|56=FIXSIM|10=033|
20161121-18:37:20.125 : 8=FIX.4.2|9=58|35=0|34=184|49=FIXSIM|52=20161121-18:37:20.124|56=BRANZOL|10=037|
20161121-18:37:20.125 : 8=FIX.4.2|9=58|35=0|34=184|49=BRANZOL|52=20161121-18:37:20.125|56=FIXSIM|10=038|
20161121-18:37:50.075 : 8=FIX.4.2|9=58|35=0|34=185|49=BRANZOL|52=20161121-18:37:50.075|56=FIXSIM|10=046|
20161121-18:37:50.076 : 8=FIX.4.2|9=58|35=0|34=185|49=FIXSIM|52=20161121-18:37:50.075|56=BRANZOL|10=046|
20161121-18:38:20.011 : 8=FIX.4.2|9=58|35=0|34=186|49=FIXSIM|52=20161121-18:38:20.011|56=BRANZOL|10=035|
20161121-18:38:20.011 : 8=FIX.4.2|9=58|35=0|34=186|49=BRANZOL|52=20161121-18:38:20.011|56=FIXSIM|10=035|
20161121-18:38:50.069 : 8=FIX.4.2|9=58|35=0|34=187|49=BRANZOL|52=20161121-18:38:50.069|56=FIXSIM|10=052|
20161121-18:38:50.070 : 8=FIX.4.2|9=58|35=0|34=187|49=FIXSIM|52=20161121-18:38:50.069|56=BRANZOL|10=052|
20161121-18:39:20.343 : 8=FIX.4.2|9=58|35=0|34=188|49=FIXSIM|52=20161121-18:39:20.342|56=BRANZOL|10=045|
20161121-18:39:20.343 : 8=FIX.4.2|9=58|35=0|34=188|49=BRANZOL|52=20161121-18:39:20.343|56=FIXSIM|10=046|
20161121-18:39:50.193 : 8=FIX.4.2|9=58|35=0|34=189|49=FIXSIM|52=20161121-18:39:50.193|56=BRANZOL|10=053|
20161121-18:39:50.194 : 8=FIX.4.2|9=58|35=0|34=189|49=BRANZOL|52=20161121-18:39:50.193|56=FIXSIM|10=053|
20161121-18:40:20.118 : 8=FIX.4.2|9=58|35=0|34=190|49=BRANZOL|52=20161121-18:40:20.118|56=FIXSIM|10=031|
20161121-18:40:20.118 : 8=FIX.4.2|9=58|35=0|34=190|49=FIXSIM|52=20161121-18:40:20.118|56=BRANZOL|10=031|
20161121-18:40:50.221 : 8=FIX.4.2|9=58|35=0|34=191|49=FIXSIM|52=20161121-18:40:50.221|56=BRANZOL|10=030|
20161121-18:40:50.221 : 8=FIX.4.2|9=58|35=0|34=191|49=BRANZOL|52=20161121-18:40:50.221|56=FIXSIM|10=030|
20161121-18:41:20.208 : 8=FIX.4.2|9=58|35=0|34=192|49=BRANZOL|52=20161121-18:41:20.208|56=FIXSIM|10=034|
20161121-18:41:20.209 : 8=FIX.4.2|9=58|35=0|34=192|49=FIXSIM|52=20161121-18:41:20.208|56=BRANZOL|10=034|
20161121-18:41:50.438 : 8=FIX.4.2|9=58|35=0|34=193|49=BRANZOL|52=20161121-18:41:50.438|56=FIXSIM|10=043|
20161121-18:41:50.439 : 8=FIX.4.2|9=58|35=0|34=193|49=FIXSIM|52=20161121-18:41:50.439|56=BRANZOL|10=044|
20161121-18:42:20.207 : 8=FIX.4.2|9=58|35=0|34=194|49=FIXSIM|52=20161121-18:42:20.206|56=BRANZOL|10=035|
20161121-18:42:20.207 : 8=FIX.4.2|9=58|35=0|34=194|49=BRANZOL|52=20161121-18:42:20.207|56=FIXSIM|10=036|
20161121-18:42:50.439 : 8=FIX.4.2|9=58|35=0|34=195|49=BRANZOL|52=20161121-18:42:50.439|56=FIXSIM|10=047|
20161121-18:42:50.440 : 8=FIX.4.2|9=58|35=0|34=195|49=FIXSIM|52=20161121-18:42:50.440|56=BRANZOL|10=039|
20161121-18:43:20.247 : 8=FIX.4.2|9=58|35=0|34=196|49=FIXSIM|52=20161121-18:43:20.246|56=BRANZOL|10=042|
20161121-18:43:20.247 : 8=FIX.4.2|9=58|35=0|34=196|49=BRANZOL|52=20161121-18:43:20.247|56=FIXSIM|10=043|
20161121-18:43:50.046 : 8=FIX.4.2|9=58|35=0|34=197|49=FIXSIM|52=20161121-18:43:50.045|56=BRANZOL|10=043|
20161121-18:43:50.046 : 8=FIX.4.2|9=58|35=0|34=197|49=BRANZOL|52=20161121-18:43:50.046|56=FIXSIM|10=044|
20161121-18:44:20.294 : 8=FIX.4.2|9=58|35=0|34=198|49=FIXSIM|52=20161121-18:44:20.293|56=BRANZOL|10=047|
20161121-18:44:20.294 : 8=FIX.4.2|9=58|35=0|34=198|49=BRANZOL|52=20161121-18:44:20.294|56=FIXSIM|10=048|
20161121-18:44:50.447 : 8=FIX.4.2|9=58|35=0|34=199|49=FIXSIM|52=20161121-18:44:50.447|56=BRANZOL|10=052|
20161121-18:44:50.447 : 8=FIX.4.2|9=58|35=0|34=199|49=BRANZOL|52=20161121-18:44:50.447|56=FIXSIM|10=052|
20161121-18:45:20.028 : 8=FIX.4.2|9=58|35=0|34=200|49=FIXSIM|52=20161121-18:45:20.027|56=BRANZOL|10=027|
20161121-18:45:20.028 : 8=FIX.4.2|9=58|35=0|34=200|49=BRANZOL|52=20161121-18:45:20.028|56=FIXSIM|10=028|
20161121-18:45:50.125 : 8=FIX.4.2|9=58|35=0|34=201|49=BRANZOL|52=20161121-18:45:50.125|56=FIXSIM|10=030|
20161121-18:45:50.126 : 8=FIX.4.2|9=58|35=0|34=201|49=FIXSIM|52=20161121-18:45:50.126|56=BRANZOL|10=031|
20161121-18:46:20.353 : 8=FIX.4.2|9=58|35=0|34=202|49=FIXSIM|52=20161121-18:46:20.352|56=BRANZOL|10=031|
20161121-18:46:20.353 : 8=FIX.4.2|9=58|35=0|34=202|49=BRANZOL|52=20161121-18:46:20.353|56=FIXSIM|10=032|
20161121-18:46:50.358 : 8=FIX.4.2|9=58|35=0|34=203|49=BRANZOL|52=20161121-18:46:50.358|56=FIXSIM|10=041|
20161121-18:46:50.359 : 8=FIX.4.2|9=58|35=0|34=203|49=FIXSIM|52=20161121-18:46:50.358|56=BRANZOL|10=041|
20161121-18:47:20.073 : 8=FIX.4.2|9=58|35=0|34=204|49=BRANZOL|52=20161121-18:47:20.073|56=FIXSIM|10=034|
20161121-18:47:20.074 : 8=FIX.4.2|9=58|35=0|34=204|49=FIXSIM|52=20161121-18:47:20.074|56=BRANZOL|10=035|
20161121-18:47:50.054 : 8=FIX.4.2|9=58|35=0|34=205|49=FIXSIM|52=20161121-18:47:50.054|56=BRANZOL|10=037|
20161121-18:47:50.055 : 8=FIX.4.2|9=58|35=0|34=205|49=BRANZOL|52=20161121-18:47:50.054|56=FIXSIM|10=037|
20161121-18:48:20.076 : 8=FIX.4.2|9=58|35=0|34=206|49=BRANZOL|52=20161121-18:48:20.074|56=FIXSIM|10=038|
20161121-18:48:20.077 : 8=FIX.4.2|9=58|35=0|34=206|49=FIXSIM|52=20161121-18:48:20.076|56=BRANZOL|10=040|
20161121-18:48:50.212 : 8=FIX.4.2|9=58|35=0|34=207|49=BRANZOL|52=20161121-18:48:50.212|56=FIXSIM|10=036|
20161121-18:48:50.212 : 8=FIX.4.2|9=58|35=0|34=207|49=FIXSIM|52=20161121-18:48:50.212|56=BRANZOL|10=036|
20161121-18:49:20.032 : 8=FIX.4.2|9=58|35=0|34=208|49=BRANZOL|52=20161121-18:49:20.032|56=FIXSIM|10=035|
20161121-18:49:20.033 : 8=FIX.4.2|9=58|35=0|34=208|49=FIXSIM|52=20161121-18:49:20.033|56=BRANZOL|10=036|
20161121-18:49:50.116 : 8=FIX.4.2|9=58|35=0|34=209|49=FIXSIM|52=20161121-18:49:50.116|56=BRANZOL|10=042|
20161121-18:49:50.116 : 8=FIX.4.2|9=58|35=0|34=209|49=BRANZOL|52=20161121-18:49:50.116|56=FIXSIM|10=042|
20161121-18:50:20.078 : 8=FIX.4.2|9=58|35=0|34=210|49=FIXSIM|52=20161121-18:50:20.078|56=BRANZOL|10=030|
20161121-18:50:20.079 : 8=FIX.4.2|9=58|35=0|34=210|49=BRANZOL|52=20161121-18:50:20.078|56=FIXSIM|10=030|
20161121-18:50:50.202 : 8=FIX.4.2|9=58|35=0|34=211|49=FIXSIM|52=20161121-18:50:50.202|56=BRANZOL|10=023|
20161121-18:50:50.203 : 8=FIX.4.2|9=58|35=0|34=211|49=BRANZOL|52=20161121-18:50:50.202|56=FIXSIM|10=023|
20161121-18:51:20.005 : 8=FIX.4.2|9=58|35=0|34=212|49=BRANZOL|52=20161121-18:51:20.005|56=FIXSIM|10=023|
20161121-18:51:20.006 : 8=FIX.4.2|9=58|35=0|34=212|49=FIXSIM|52=20161121-18:51:20.006|56=BRANZOL|10=024|
20161121-18:51:50.189 : 8=FIX.4.2|9=58|35=0|34=213|49=FIXSIM|52=20161121-18:51:50.189|56=BRANZOL|10=040|
20161121-18:51:50.189 : 8=FIX.4.2|9=58|35=0|34=213|49=BRANZOL|52=20161121-18:51:50.189|56=FIXSIM|10=040|
20161121-18:52:20.154 : 8=FIX.4.2|9=58|35=0|34=214|49=BRANZOL|52=20161121-18:52:20.154|56=FIXSIM|10=031|
20161121-18:52:20.155 : 8=FIX.4.2|9=58|35=0|34=214|49=FIXSIM|52=20161121-18:52:20.155|56=BRANZOL|10=032|
20161121-18:52:50.162 : 8=FIX.4.2|9=58|35=0|34=215|49=BRANZOL|52=20161121-18:52:50.162|56=FIXSIM|10=034|
20161121-18:52:50.163 : 8=FIX.4.2|9=58|35=0|34=215|49=FIXSIM|52=20161121-18:52:50.163|56=BRANZOL|10=035|
20161121-18:53:20.190 : 8=FIX.4.2|9=58|35=0|34=216|49=BRANZOL|52=20161121-18:53:20.190|56=FIXSIM|10=034|
20161121-18:53:20.191 : 8=FIX.4.2|9=58|35=0|34=216|49=FIXSIM|52=20161121-18:53:20.191|56=BRANZOL|10=035|
20161121-18:53:50.225 : 8=FIX.4.2|9=58|35=0|34=217|49=BRANZOL|52=20161121-18:53:50.225|56=FIXSIM|10=037|
20161121-18:53:50.226 : 8=FIX.4.2|9=58|35=0|34=217|49=FIXSIM|52=20161121-18:53:50.225|56=BRANZOL|10=037|
20161121-18:54:20.151 : 8=FIX.4.2|9=58|35=0|34=218|49=FIXSIM|52=20161121-18:54:20.151|56=BRANZOL|10=034|
20161121-18:54:20.151 : 8=FIX.4.2|9=58|35=0|34=218|49=BRANZOL|52=20161121-18:54:20.151|56=FIXSIM|10=034|
20161121-18:54:50.181 : 8=FIX.4.2|9=58|35=0|34=219|49=BRANZOL|52=20161121-18:54:50.181|56=FIXSIM|10=041|
20161121-18:54:50.182 : 8=FIX.4.2|9=58|35=0|34=219|49=FIXSIM|52=20161121-18:54:50.182|56=BRANZOL|10=042|
20161121-18:55:20.041 : 8=FIX.4.2|9=58|35=0|34=220|49=FIXSIM|52=20161121-18:55:20.040|56=BRANZOL|10=025|
20161121-18:55:20.041 : 8=FIX.4.2|9=58|35=0|34=220|49=BRANZOL|52=20161121-18:55:20.041|56=FIXSIM|10=026|
20161121-18:55:50.028 : 8=FIX.4.2|9=58|35=0|34=221|49=FIXSIM|52=20161121-18:55:50.027|56=BRANZOL|10=034|
20161121-18:55:50.028 : 8=FIX.4.2|9=58|35=0|34=221|49=BRANZOL|52=20161121-18:55:50.028|56=FIXSIM|10=035|
20161121-18:56:20.169 : 8=FIX.4.2|9=58|35=0|34=222|49=FIXSIM|52=20161121-18:56:20.169|56=BRANZOL|10=040|
20161121-18:56:20.170 : 8=FIX.4.2|9=58|35=0|34=222|49=BRANZOL|52=20161121-18:56:20.170|56=FIXSIM|10=032|
20161121-18:56:50.011 : 8=FIX.4.2|9=58|35=0|34=223|49=FIXSIM|52=20161121-18:56:50.011|56=BRANZOL|10=030|
20161121-18:56:50.012 : 8=FIX.4.2|9=58|35=0|34=223|49=BRANZOL|52=20161121-18:56:50.011|56=FIXSIM|10=030|
20161121-18:57:20.076 : 8=FIX.4.2|9=58|35=0|34=224|49=FIXSIM|52=20161121-18:57:20.076|56=BRANZOL|10=040|
20161121-18:57:20.077 : 8=FIX.4.2|9=58|35=0|34=224|49=BRANZOL|52=20161121-18:57:20.076|56=FIXSIM|10=040|
20161121-18:57:50.091 : 8=FIX.4.2|9=58|35=0|34=225|49=BRANZOL|52=20161121-18:57:50.091|56=FIXSIM|10=041|
20161121-18:57:50.091 : 8=FIX.4.2|9=58|35=0|34=225|49=FIXSIM|52=20161121-18:57:50.091|56=BRANZOL|10=041|
20161121-18:58:20.036 : 8=FIX.4.2|9=58|35=0|34=226|49=FIXSIM|52=20161121-18:58:20.036|56=BRANZOL|10=039|
20161121-18:58:20.037 : 8=FIX.4.2|9=58|35=0|34=226|49=BRANZOL|52=20161121-18:58:20.037|56=FIXSIM|10=040|
20161121-18:58:50.037 : 8=FIX.4.2|9=58|35=0|34=227|49=FIXSIM|52=20161121-18:58:50.037|56=BRANZOL|10=044|
20161121-18:58:50.038 : 8=FIX.4.2|9=58|35=0|34=227|49=BRANZOL|52=20161121-18:58:50.037|56=FIXSIM|10=044|
20161121-18:59:20.300 : 8=FIX.4.2|9=58|35=0|34=228|49=BRANZOL|52=20161121-18:59:20.300|56=FIXSIM|10=036|
20161121-18:59:20.301 : 8=FIX.4.2|9=58|35=0|34=228|49=FIXSIM|52=20161121-18:59:20.301|56=BRANZOL|10=037|
20161121-18:59:50.042 : 8=FIX.4.2|9=58|35=0|34=229|49=BRANZOL|52=20161121-18:59:50.042|56=FIXSIM|10=043|
20161121-18:59:50.043 : 8=FIX.4.2|9=58|35=0|34=229|49=FIXSIM|52=20161121-18:59:50.042|56=BRANZOL|10=043|
20161121-19:00:20.226 : 8=FIX.4.2|9=58|35=0|34=230|49=BRANZOL|52=20161121-19:00:20.226|56=FIXSIM|10=023|
20161121-19:00:20.227 : 8=FIX.4.2|9=58|35=0|34=230|49=FIXSIM|52=20161121-19:00:20.227|56=BRANZOL|10=024|
20161121-19:00:50.187 : 8=FIX.4.2|9=58|35=0|34=231|49=BRANZOL|52=20161121-19:00:50.187|56=FIXSIM|10=033|
20161121-19:00:50.188 : 8=FIX.4.2|9=58|35=0|34=231|49=FIXSIM|52=20161121-19:00:50.188|56=BRANZOL|10=034|
20161121-19:01:20.185 : 8=FIX.4.2|9=58|35=0|34=232|49=BRANZOL|52=20161121-19:01:20.185|56=FIXSIM|10=030|
20161121-19:01:20.185 : 8=FIX.4.2|9=58|35=0|34=232|49=FIXSIM|52=20161121-19:01:20.185|56=BRANZOL|10=030|
20161121-19:01:50.204 : 8=FIX.4.2|9=58|35=0|34=233|49=BRANZOL|52=20161121-19:01:50.204|56=FIXSIM|10=026|
20161121-19:01:50.205 : 8=FIX.4.2|9=58|35=0|34=233|49=FIXSIM|52=20161121-19:01:50.205|56=BRANZOL|10=027|
20161121-19:02:20.197 : 8=FIX.4.2|9=58|35=0|34=234|49=BRANZOL|52=20161121-19:02:20.197|56=FIXSIM|10=036|
20161121-19:02:20.198 : 8=FIX.4.2|9=58|35=0|34=234|49=FIXSIM|52=20161121-19:02:20.197|56=BRANZOL|10=036|
20161121-19:02:50.050 : 8=FIX.4.2|9=58|35=0|34=235|49=FIXSIM|52=20161121-19:02:50.050|56=BRANZOL|10=028|
20161121-19:02:50.051 : 8=FIX.4.2|9=58|35=0|34=235|49=BRANZOL|52=20161121-19:02:50.051|56=FIXSIM|10=029|
20161121-19:03:20.218 : 8=FIX.4.2|9=58|35=0|34=236|49=BRANZOL|52=20161121-19:03:20.218|56=FIXSIM|10=033|
20161121-19:03:20.219 : 8=FIX.4.2|9=58|35=0|34=236|49=FIXSIM|52=20161121-19:03:20.218|56=BRANZOL|10=033|
20161121-19:03:50.258 : 8=FIX.4.2|9=58|35=0|34=237|49=BRANZOL|52=20161121-19:03:50.258|56=FIXSIM|10=041|
20161121-19:03:50.258 : 8=FIX.4.2|9=58|35=0|34=237|49=FIXSIM|52=20161121-19:03:50.258|56=BRANZOL|10=041|
20161121-19:04:20.126 : 8=FIX.4.2|9=58|35=0|34=238|49=BRANZOL|52=20161121-19:04:20.126|56=FIXSIM|10=034|
20161121-19:04:20.127 : 8=FIX.4.2|9=58|35=0|34=238|49=FIXSIM|52=20161121-19:04:20.126|56=BRANZOL|10=034|
20161121-19:04:50.047 : 8=FIX.4.2|9=58|35=0|34=239|49=BRANZOL|52=20161121-19:04:50.047|56=FIXSIM|10=040|
20161121-19:04:50.047 : 8=FIX.4.2|9=58|35=0|34=239|49=FIXSIM|52=20161121-19:04:50.047|56=BRANZOL|10=040|
20161121-19:05:20.187 : 8=FIX.4.2|9=58|35=0|34=240|49=BRANZOL|52=20161121-19:05:20.187|56=FIXSIM|10=035|
20161121-19:05:20.188 : 8=FIX.4.2|9=58|35=0|34=240|49=FIXSIM|52=20161121-19:05:20.188|56=BRANZOL|10=036|
20161121-19:05:50.210 : 8=FIX.4.2|9=58|35=0|34=241|49=BRANZOL|52=20161121-19:05:50.210|56=FIXSIM|10=026|
20161121-19:05:50.210 : 8=FIX.4.2|9=58|35=0|34=241|49=FIXSIM|52=20161121-19:05:50.210|56=BRANZOL|10=026|
20161121-19:06:20.079 : 8=FIX.4.2|9=58|35=0|34=242|49=BRANZOL|52=20161121-19:06:20.078|56=FIXSIM|10=037|
20161121-19:06:20.079 : 8=FIX.4.2|9=58|35=0|34=242|49=FIXSIM|52=20161121-19:06:20.079|56=BRANZOL|10=038|
20161121-19:06:50.187 : 8=FIX.4.2|9=58|35=0|34=243|49=BRANZOL|52=20161121-19:06:50.187|56=FIXSIM|10=042|
20161121-19:06:50.187 : 8=FIX.4.2|9=58|35=0|34=243|49=FIXSIM|52=20161121-19:06:50.187|56=BRANZOL|10=042|
20161121-19:07:20.185 : 8=FIX.4.2|9=58|35=0|34=244|49=BRANZOL|52=20161121-19:07:20.185|56=FIXSIM|10=039|
20161121-19:07:20.186 : 8=FIX.4.2|9=58|35=0|34=244|49=FIXSIM|52=20161121-19:07:20.186|56=BRANZOL|10=040|
20161121-19:07:50.145 : 8=FIX.4.2|9=58|35=0|34=245|49=FIXSIM|52=20161121-19:07:50.145|56=BRANZOL|10=039|
20161121-19:07:50.146 : 8=FIX.4.2|9=58|35=0|34=245|49=BRANZOL|52=20161121-19:07:50.145|56=FIXSIM|10=039|
20161121-19:08:20.083 : 8=FIX.4.2|9=58|35=0|34=246|49=BRANZOL|52=20161121-19:08:20.083|56=FIXSIM|10=039|
20161121-19:08:20.083 : 8=FIX.4.2|9=58|35=0|34=246|49=FIXSIM|52=20161121-19:08:20.083|56=BRANZOL|10=039|
20161121-19:08:50.022 : 8=FIX.4.2|9=58|35=0|34=247|49=BRANZOL|52=20161121-19:08:50.021|56=FIXSIM|10=035|
20161121-19:08:50.022 : 8=FIX.4.2|9=58|35=0|34=247|49=FIXSIM|52=20161121-19:08:50.022|56=BRANZOL|10=036|
20161121-19:09:20.128 : 8=FIX.4.2|9=58|35=0|34=248|49=BRANZOL|52=20161121-19:09:20.128|56=FIXSIM|10=042|
20161121-19:09:20.129 : 8=FIX.4.2|9=58|35=0|34=248|49=FIXSIM|52=20161121-19:09:20.128|56=BRANZOL|10=042|
20161121-19:09:50.010 : 8=FIX.4.2|9=58|35=0|34=249|49=BRANZOL|52=20161121-19:09:50.010|56=FIXSIM|10=036|
20161121-19:09:50.011 : 8=FIX.4.2|9=58|35=0|34=249|49=FIXSIM|52=20161121-19:09:50.010|56=BRANZOL|10=036|
20161121-19:10:20.157 : 8=FIX.4.2|9=58|35=0|34=250|49=BRANZOL|52=20161121-19:10:20.157|56=FIXSIM|10=029|
20161121-19:10:20.158 : 8=FIX.4.2|9=58|35=0|34=250|49=FIXSIM|52=20161121-19:10:20.157|56=BRANZOL|10=029|
20161121-19:10:50.015 : 8=FIX.4.2|9=58|35=0|34=251|49=BRANZOL|52=20161121-19:10:50.015|56=FIXSIM|10=026|
20161121-19:10:50.016 : 8=FIX.4.2|9=58|35=0|34=251|49=FIXSIM|52=20161121-19:10:50.015|56=BRANZOL|10=026|
20161121-19:11:20.140 : 8=FIX.4.2|9=58|35=0|34=252|49=BRANZOL|52=20161121-19:11:20.140|56=FIXSIM|10=024|
20161121-19:11:20.140 : 8=FIX.4.2|9=58|35=0|34=252|49=FIXSIM|52=20161121-19:11:20.140|56=BRANZOL|10=024|
20161121-19:11:50.097 : 8=FIX.4.2|9=58|35=0|34=253|49=BRANZOL|52=20161121-19:11:50.096|56=FIXSIM|10=038|
20161121-19:11:50.097 : 8=FIX.4.2|9=58|35=0|34=253|49=FIXSIM|52=20161121-19:11:50.097|56=BRANZOL|10=039|
20161121-19:12:20.088 : 8=FIX.4.2|9=58|35=0|34=254|49=FIXSIM|52=20161121-19:12:20.088|56=BRANZOL|10=038|
20161121-19:12:20.089 : 8=FIX.4.2|9=58|35=0|34=254|49=BRANZOL|52=20161121-19:12:20.089|56=FIXSIM|10=039|
20161121-19:12:50.022 : 8=FIX.4.2|9=58|35=0|34=255|49=BRANZOL|52=20161121-19:12:50.020|56=FIXSIM|10=028|
20161121-19:12:50.023 : 8=FIX.4.2|9=58|35=0|34=255|49=FIXSIM|52=20161121-19:12:50.022|56=BRANZOL|10=030|
20161121-19:13:20.074 : 8=FIX.4.2|9=58|35=0|34=256|49=BRANZOL|52=20161121-19:13:20.074|56=FIXSIM|10=036|
20161121-19:13:20.074 : 8=FIX.4.2|9=58|35=0|34=256|49=FIXSIM|52=20161121-19:13:20.074|56=BRANZOL|10=036|
20161121-19:13:50.036 : 8=FIX.4.2|9=58|35=0|34=257|49=BRANZOL|52=20161121-19:13:50.036|56=FIXSIM|10=038|
20161121-19:13:50.037 : 8=FIX.4.2|9=58|35=0|34=257|49=FIXSIM|52=20161121-19:13:50.036|56=BRANZOL|10=038|
20161121-19:14:20.014 : 8=FIX.4.2|9=58|35=0|34=258|49=BRANZOL|52=20161121-19:14:20.014|56=FIXSIM|10=033|
20161121-19:14:20.015 : 8=FIX.4.2|9=58|35=0|34=258|49=FIXSIM|52=20161121-19:14:20.015|56=BRANZOL|10=034|
20161121-19:14:50.003 : 8=FIX.4.2|9=58|35=0|34=259|49=BRANZOL|52=20161121-19:14:50.002|56=FIXSIM|10=034|
20161121-19:14:50.003 : 8=FIX.4.2|9=58|35=0|34=259|49=FIXSIM|52=20161121-19:14:50.003|56=BRANZOL|10=035|
20161121-19:15:20.370 : 8=FIX.4.2|9=58|35=0|34=260|49=FIXSIM|52=20161121-19:15:20.370|56=BRANZOL|10=032|
20161121-19:15:20.370 : 8=FIX.4.2|9=58|35=0|34=260|49=BRANZOL|52=20161121-19:15:20.370|56=FIXSIM|10=032|
20161121-19:15:50.223 : 8=FIX.4.2|9=58|35=0|34=261|49=BRANZOL|52=20161121-19:15:50.223|56=FIXSIM|10=033|
20161121-19:15:50.224 : 8=FIX.4.2|9=58|35=0|34=261|49=FIXSIM|52=20161121-19:15:50.224|56=BRANZOL|10=034|
20161121-19:16:20.008 : 8=FIX.4.2|9=58|35=0|34=262|49=BRANZOL|52=20161121-19:16:20.008|56=FIXSIM|10=033|
20161121-19:16:20.009 : 8=FIX.4.2|9=58|35=0|34=262|49=FIXSIM|52=20161121-19:16:20.009|56=BRANZOL|10=034|
20161121-19:16:50.488 : 8=FIX.4.2|9=58|35=0|34=263|49=FIXSIM|52=20161121-19:16:50.487|56=BRANZOL|10=048|
20161121-19:16:50.488 : 8=FIX.4.2|9=58|35=0|34=263|49=BRANZOL|52=20161121-19:16:50.488|56=FIXSIM|10=049|
20161121-19:17:20.144 : 8=FIX.4.2|9=58|35=0|34=264|49=BRANZOL|52=20161121-19:17:20.143|56=FIXSIM|10=036|
20161121-19:17:20.144 : 8=FIX.4.2|9=58|35=0|34=264|49=FIXSIM|52=20161121-19:17:20.144|56=BRANZOL|10=037|
20161121-19:17:50.158 : 8=FIX.4.2|9=58|35=0|34=265|49=FIXSIM|52=20161121-19:17:50.158|56=BRANZOL|10=046|
20161121-19:17:50.160 : 8=FIX.4.2|9=58|35=0|34=265|49=BRANZOL|52=20161121-19:17:50.160|56=FIXSIM|10=039|
20161121-19:18:20.663 : 8=FIX.4.2|9=58|35=0|34=266|49=BRANZOL|52=20161121-19:18:20.663|56=FIXSIM|10=046|
20161121-19:18:20.663 : 8=FIX.4.2|9=58|35=0|34=266|49=FIXSIM|52=20161121-19:18:20.663|56=BRANZOL|10=046|
20161121-19:18:50.111 : 8=FIX.4.2|9=58|35=0|34=267|49=BRANZOL|52=20161121-19:18:50.111|56=FIXSIM|10=038|
20161121-19:18:50.112 : 8=FIX.4.2|9=58|35=0|34=267|49=FIXSIM|52=20161121-19:18:50.112|56=BRANZOL|10=039|
20161121-19:19:20.164 : 8=FIX.4.2|9=58|35=0|34=268|49=FIXSIM|52=20161121-19:19:20.164|56=BRANZOL|10=045|
20161121-19:19:20.164 : 8=FIX.4.2|9=58|35=0|34=268|49=BRANZOL|52=20161121-19:19:20.164|56=FIXSIM|10=045|
20161121-19:19:50.463 : 8=FIX.4.2|9=58|35=0|34=269|49=BRANZOL|52=20161121-19:19:50.463|56=FIXSIM|10=051|
20161121-19:19:50.464 : 8=FIX.4.2|9=58|35=0|34=269|49=FIXSIM|52=20161121-19:19:50.464|56=BRANZOL|10=052|
20161121-19:20:20.022 : 8=FIX.4.2|9=58|35=0|34=270|49=FIXSIM|52=20161121-19:20:20.021|56=BRANZOL|10=022|
20161121-19:20:20.022 : 8=FIX.4.2|9=58|35=0|34=270|49=BRANZOL|52=20161121-19:20:20.022|56=FIXSIM|10=023|
20161121-19:20:50.083 : 8=FIX.4.2|9=58|35=0|34=271|49=FIXSIM|52=20161121-19:20:50.083|56=BRANZOL|10=034|
20161121-19:20:50.083 : 8=FIX.4.2|9=58|35=0|34=271|49=BRANZOL|52=20161121-19:20:50.083|56=FIXSIM|10=034|
20161121-19:21:20.170 : 8=FIX.4.2|9=58|35=0|34=272|49=BRANZOL|52=20161121-19:21:20.169|56=FIXSIM|10=038|
20161121-19:21:20.170 : 8=FIX.4.2|9=58|35=0|34=272|49=FIXSIM|52=20161121-19:21:20.170|56=BRANZOL|10=030|
20161121-19:21:50.183 : 8=FIX.4.2|9=58|35=0|34=273|49=BRANZOL|52=20161121-19:21:50.183|56=FIXSIM|10=038|
20161121-19:21:50.184 : 8=FIX.4.2|9=58|35=0|34=273|49=FIXSIM|52=20161121-19:21:50.183|56=BRANZOL|10=038|
20161121-19:22:20.127 : 8=FIX.4.2|9=58|35=0|34=274|49=BRANZOL|52=20161121-19:22:20.127|56=FIXSIM|10=035|
20161121-19:22:20.128 : 8=FIX.4.2|9=58|35=0|34=274|49=FIXSIM|52=20161121-19:22:20.128|56=BRANZOL|10=036|
20161121-19:22:50.004 : 8=FIX.4.2|9=58|35=0|34=275|49=BRANZOL|52=20161121-19:22:50.004|56=FIXSIM|10=033|
20161121-19:22:50.005 : 8=FIX.4.2|9=58|35=0|34=275|49=FIXSIM|52=20161121-19:22:50.005|56=BRANZOL|10=034|
20161121-19:23:20.179 : 8=FIX.4.2|9=58|35=0|34=276|49=FIXSIM|52=20161121-19:23:20.179|56=BRANZOL|10=045|
20161121-19:23:20.179 : 8=FIX.4.2|9=58|35=0|34=276|49=BRANZOL|52=20161121-19:23:20.179|56=FIXSIM|10=045|
20161121-19:23:50.065 : 8=FIX.4.2|9=58|35=0|34=277|49=FIXSIM|52=20161121-19:23:50.065|56=BRANZOL|10=043|
20161121-19:23:50.066 : 8=FIX.4.2|9=58|35=0|34=277|49=BRANZOL|52=20161121-19:23:50.066|56=FIXSIM|10=044|
20161121-19:24:20.357 : 8=FIX.4.2|9=58|35=0|34=278|49=FIXSIM|52=20161121-19:24:20.357|56=BRANZOL|10=046|
20161121-19:24:20.357 : 8=FIX.4.2|9=58|35=0|34=278|49=BRANZOL|52=20161121-19:24:20.357|56=FIXSIM|10=046|
20161121-19:24:50.360 : 8=FIX.4.2|9=58|35=0|34=279|49=FIXSIM|52=20161121-19:24:50.359|56=BRANZOL|10=052|
20161121-19:24:50.360 : 8=FIX.4.2|9=58|35=0|34=279|49=BRANZOL|52=20161121-19:24:50.360|56=FIXSIM|10=044|
20161121-19:25:20.062 : 8=FIX.4.2|9=58|35=0|34=280|49=FIXSIM|52=20161121-19:25:20.062|56=BRANZOL|10=033|
20161121-19:25:20.063 : 8=FIX.4.2|9=58|35=0|34=280|49=BRANZOL|52=20161121-19:25:20.063|56=FIXSIM|10=034|
20161121-19:25:50.138 : 8=FIX.4.2|9=58|35=0|34=281|49=FIXSIM|52=20161121-19:25:50.137|56=BRANZOL|10=040|
20161121-19:25:50.138 : 8=FIX.4.2|9=58|35=0|34=281|49=BRANZOL|52=20161121-19:25:50.138|56=FIXSIM|10=041|
20161121-19:26:20.461 : 8=FIX.4.2|9=58|35=0|34=282|49=BRANZOL|52=20161121-19:26:20.461|56=FIXSIM|10=039|
20161121-19:26:20.462 : 8=FIX.4.2|9=58|35=0|34=282|49=FIXSIM|52=20161121-19:26:20.462|56=BRANZOL|10=040|
20161121-19:26:50.578 : 8=FIX.4.2|9=58|35=0|34=283|49=FIXSIM|52=20161121-19:26:50.577|56=BRANZOL|10=051|
20161121-19:26:50.578 : 8=FIX.4.2|9=58|35=0|34=283|49=BRANZOL|52=20161121-19:26:50.578|56=FIXSIM|10=052|
20161121-19:27:20.387 : 8=FIX.4.2|9=58|35=0|34=284|49=FIXSIM|52=20161121-19:27:20.387|56=BRANZOL|10=049|
20161121-19:27:20.388 : 8=FIX.4.2|9=58|35=0|34=284|49=BRANZOL|52=20161121-19:27:20.388|56=FIXSIM|10=050|
20161121-19:27:50.483 : 8=FIX.4.2|9=58|35=0|34=285|49=BRANZOL|52=20161121-19:27:50.483|56=FIXSIM|10=050|
20161121-19:27:50.483 : 8=FIX.4.2|9=58|35=0|34=285|49=FIXSIM|52=20161121-19:27:50.483|56=BRANZOL|10=050|
20161121-19:28:20.321 : 8=FIX.4.2|9=58|35=0|34=286|49=FIXSIM|52=20161121-19:28:20.320|56=BRANZOL|10=039|
20161121-19:28:20.321 : 8=FIX.4.2|9=58|35=0|34=286|49=BRANZOL|52=20161121-19:28:20.321|56=FIXSIM|10=040|
20161121-19:28:50.265 : 8=FIX.4.2|9=58|35=0|34=287|49=BRANZOL|52=20161121-19:28:50.265|56=FIXSIM|10=051|
20161121-19:28:50.266 : 8=FIX.4.2|9=58|35=0|34=287|49=FIXSIM|52=20161121-19:28:50.265|56=BRANZOL|10=051|
20161121-19:29:20.051 : 8=FIX.4.2|9=58|35=0|34=288|49=FIXSIM|52=20161121-19:29:20.050|56=BRANZOL|10=042|
20161121-19:29:20.051 : 8=FIX.4.2|9=58|35=0|34=288|49=BRANZOL|52=20161121-19:29:20.051|56=FIXSIM|10=043|
20161121-19:29:50.124 : 8=FIX.4.2|9=58|35=0|34=289|49=FIXSIM|52=20161121-19:29:50.124|56=BRANZOL|10=048|
20161121-19:29:50.125 : 8=FIX.4.2|9=58|35=0|34=289|49=BRANZOL|52=20161121-19:29:50.125|56=FIXSIM|10=049|
20161121-19:30:20.478 : 8=FIX.4.2|9=58|35=0|34=290|49=FIXSIM|52=20161121-19:30:20.478|56=BRANZOL|10=041|
20161121-19:30:20.479 : 8=FIX.4.2|9=58|35=0|34=290|49=BRANZOL|52=20161121-19:30:20.479|56=FIXSIM|10=042|
20161121-19:30:50.138 : 8=FIX.4.2|9=58|35=0|34=291|49=BRANZOL|52=20161121-19:30:50.138|56=FIXSIM|10=038|
20161121-19:30:50.139 : 8=FIX.4.2|9=58|35=0|34=291|49=FIXSIM|52=20161121-19:30:50.138|56=BRANZOL|10=038|
20161121-19:31:20.377 : 8=FIX.4.2|9=58|35=0|34=292|49=FIXSIM|52=20161121-19:31:20.377|56=BRANZOL|10=042|
20161121-19:31:20.378 : 8=FIX.4.2|9=58|35=0|34=292|49=BRANZOL|52=20161121-19:31:20.378|56=FIXSIM|10=043|
20161121-19:31:50.238 : 8=FIX.4.2|9=58|35=0|34=293|49=FIXSIM|52=20161121-19:31:50.238|56=BRANZOL|10=042|
20161121-19:31:50.239 : 8=FIX.4.2|9=58|35=0|34=293|49=BRANZOL|52=20161121-19:31:50.239|56=FIXSIM|10=043|
20161121-19:32:20.306 : 8=FIX.4.2|9=58|35=0|34=294|49=FIXSIM|52=20161121-19:32:20.305|56=BRANZOL|10=036|
20161121-19:32:20.306 : 8=FIX.4.2|9=58|35=0|34=294|49=BRANZOL|52=20161121-19:32:20.306|56=FIXSIM|10=037|
20161121-19:32:50.556 : 8=FIX.4.2|9=58|35=0|34=295|49=FIXSIM|52=20161121-19:32:50.556|56=BRANZOL|10=048|
20161121-19:32:50.556 : 8=FIX.4.2|9=58|35=0|34=295|49=BRANZOL|52=20161121-19:32:50.556|56=FIXSIM|10=048|
20161121-19:33:20.407 : 8=FIX.4.2|9=58|35=0|34=296|49=FIXSIM|52=20161121-19:33:20.407|56=BRANZOL|10=042|
20161121-19:33:20.408 : 8=FIX.4.2|9=58|35=0|34=296|49=BRANZOL|52=20161121-19:33:20.408|56=FIXSIM|10=043|
20161121-19:33:50.427 : 8=FIX.4.2|9=58|35=0|34=297|49=FIXSIM|52=20161121-19:33:50.427|56=BRANZOL|10=048|
20161121-19:33:50.427 : 8=FIX.4.2|9=58|35=0|34=297|49=BRANZOL|52=20161121-19:33:50.427|56=FIXSIM|10=048|
20161121-19:34:20.038 : 8=FIX.4.2|9=58|35=0|34=298|49=FIXSIM|52=20161121-19:34:20.038|56=BRANZOL|10=045|
20161121-19:34:20.039 : 8=FIX.4.2|9=58|35=0|34=298|49=BRANZOL|52=20161121-19:34:20.039|56=FIXSIM|10=046|
20161121-19:34:50.021 : 8=FIX.4.2|9=58|35=0|34=299|49=BRANZOL|52=20161121-19:34:50.021|56=FIXSIM|10=041|
20161121-19:34:50.021 : 8=FIX.4.2|9=58|35=0|34=299|49=FIXSIM|52=20161121-19:34:50.021|56=BRANZOL|10=041|
20161121-19:35:20.391 : 8=FIX.4.2|9=58|35=0|34=300|49=FIXSIM|52=20161121-19:35:20.390|56=BRANZOL|10=031|
20161121-19:35:20.391 : 8=FIX.4.2|9=58|35=0|34=300|49=BRANZOL|52=20161121-19:35:20.391|56=FIXSIM|10=032|
20161121-19:35:50.205 : 8=FIX.4.2|9=58|35=0|34=301|49=BRANZOL|52=20161121-19:35:50.205|56=FIXSIM|10=030|
20161121-19:35:50.205 : 8=FIX.4.2|9=58|35=0|34=301|49=FIXSIM|52=20161121-19:35:50.205|56=BRANZOL|10=030|
20161121-19:36:20.209 : 8=FIX.4.2|9=58|35=0|34=302|49=FIXSIM|52=20161121-19:36:20.209|56=BRANZOL|10=033|
20161121-19:36:20.209 : 8=FIX.4.2|9=58|35=0|34=302|49=BRANZOL|52=20161121-19:36:20.209|56=FIXSIM|10=033|
20161121-19:36:50.245 : 8=FIX.4.2|9=58|35=0|34=303|49=FIXSIM|52=20161121-19:36:50.245|56=BRANZOL|10=037|
20161121-19:36:50.245 : 8=FIX.4.2|9=58|35=0|34=303|49=BRANZOL|52=20161121-19:36:50.245|56=FIXSIM|10=037|
20161121-19:37:20.280 : 8=FIX.4.2|9=58|35=0|34=304|49=FIXSIM|52=20161121-19:37:20.280|56=BRANZOL|10=035|
20161121-19:37:20.280 : 8=FIX.4.2|9=58|35=0|34=304|49=BRANZOL|52=20161121-19:37:20.280|56=FIXSIM|10=035|
20161121-19:37:50.280 : 8=FIX.4.2|9=58|35=0|34=305|49=FIXSIM|52=20161121-19:37:50.280|56=BRANZOL|10=039|
20161121-19:37:50.281 : 8=FIX.4.2|9=58|35=0|34=305|49=BRANZOL|52=20161121-19:37:50.281|56=FIXSIM|10=040|
20161121-19:38:20.216 : 8=FIX.4.2|9=58|35=0|34=306|49=FIXSIM|52=20161121-19:38:20.216|56=BRANZOL|10=037|
20161121-19:38:20.216 : 8=FIX.4.2|9=58|35=0|34=306|49=BRANZOL|52=20161121-19:38:20.216|56=FIXSIM|10=037|
20161121-19:38:50.086 : 8=FIX.4.2|9=58|35=0|34=307|49=FIXSIM|52=20161121-19:38:50.086|56=BRANZOL|10=046|
20161121-19:38:50.087 : 8=FIX.4.2|9=58|35=0|34=307|49=BRANZOL|52=20161121-19:38:50.086|56=FIXSIM|10=046|
20161121-19:39:20.220 : 8=FIX.4.2|9=58|35=0|34=308|49=BRANZOL|52=20161121-19:39:20.220|56=FIXSIM|10=035|
20161121-19:39:20.221 : 8=FIX.4.2|9=58|35=0|34=308|49=FIXSIM|52=20161121-19:39:20.221|56=BRANZOL|10=036|
20161121-19:39:50.270 : 8=FIX.4.2|9=58|35=0|34=309|49=BRANZOL|52=20161121-19:39:50.270|56=FIXSIM|10=044|
20161121-19:39:50.271 : 8=FIX.4.2|9=58|35=0|34=309|49=FIXSIM|52=20161121-19:39:50.270|56=BRANZOL|10=044|
20161121-19:40:20.237 : 8=FIX.4.2|9=58|35=0|34=310|49=BRANZOL|52=20161121-19:40:20.236|56=FIXSIM|10=027|
20161121-19:40:20.237 : 8=FIX.4.2|9=58|35=0|34=310|49=FIXSIM|52=20161121-19:40:20.237|56=BRANZOL|10=028|
20161121-19:40:50.030 : 8=FIX.4.2|9=58|35=0|34=311|49=FIXSIM|52=20161121-19:40:50.029|56=BRANZOL|10=031|
20161121-19:40:50.030 : 8=FIX.4.2|9=58|35=0|34=311|49=BRANZOL|52=20161121-19:40:50.030|56=FIXSIM|10=023|
20161121-19:41:20.052 : 8=FIX.4.2|9=58|35=0|34=312|49=FIXSIM|52=20161121-19:41:20.052|56=BRANZOL|10=026|
20161121-19:41:20.052 : 8=FIX.4.2|9=58|35=0|34=312|49=BRANZOL|52=20161121-19:41:20.052|56=FIXSIM|10=026|
20161121-19:41:50.234 : 8=FIX.4.2|9=58|35=0|34=313|49=FIXSIM|52=20161121-19:41:50.234|56=BRANZOL|10=032|
20161121-19:41:50.234 : 8=FIX.4.2|9=58|35=0|34=313|49=BRANZOL|52=20161121-19:41:50.234|56=FIXSIM|10=032|
20161121-19:42:20.093 : 8=FIX.4.2|9=58|35=0|34=314|49=FIXSIM|52=20161121-19:42:20.092|56=BRANZOL|10=033|
20161121-19:42:20.093 : 8=FIX.4.2|9=58|35=0|34=314|49=BRANZOL|52=20161121-19:42:20.093|56=FIXSIM|10=034|
20161121-19:42:50.387 : 8=FIX.4.2|9=58|35=0|34=315|49=FIXSIM|52=20161121-19:42:50.386|56=BRANZOL|10=043|
20161121-19:42:50.387 : 8=FIX.4.2|9=58|35=0|34=315|49=BRANZOL|52=20161121-19:42:50.387|56=FIXSIM|10=044|
20161121-19:43:20.261 : 8=FIX.4.2|9=58|35=0|34=316|49=FIXSIM|52=20161121-19:43:20.261|56=BRANZOL|10=034|
20161121-19:43:20.262 : 8=FIX.4.2|9=58|35=0|34=316|49=BRANZOL|52=20161121-19:43:20.262|56=FIXSIM|10=035|
20161121-19:43:50.064 : 8=FIX.4.2|9=58|35=0|34=317|49=FIXSIM|52=20161121-19:43:50.064|56=BRANZOL|10=039|
20161121-19:43:50.064 : 8=FIX.4.2|9=58|35=0|34=317|49=BRANZOL|52=20161121-19:43:50.064|56=FIXSIM|10=039|
20161121-19:44:20.141 : 8=FIX.4.2|9=58|35=0|34=318|49=FIXSIM|52=20161121-19:44:20.140|56=BRANZOL|10=033|
20161121-19:44:20.141 : 8=FIX.4.2|9=58|35=0|34=318|49=BRANZOL|52=20161121-19:44:20.141|56=FIXSIM|10=034|
20161121-19:44:50.050 : 8=FIX.4.2|9=58|35=0|34=319|49=FIXSIM|52=20161121-19:44:50.049|56=BRANZOL|10=045|
20161121-19:44:50.050 : 8=FIX.4.2|9=58|35=0|34=319|49=BRANZOL|52=20161121-19:44:50.050|56=FIXSIM|10=037|
20161121-19:45:20.036 : 8=FIX.4.2|9=58|35=0|34=320|49=BRANZOL|52=20161121-19:45:20.036|56=FIXSIM|10=031|
20161121-19:45:20.037 : 8=FIX.4.2|9=58|35=0|34=320|49=FIXSIM|52=20161121-19:45:20.037|56=BRANZOL|10=032|
20161121-19:45:50.056 : 8=FIX.4.2|9=58|35=0|34=321|49=FIXSIM|52=20161121-19:45:50.056|56=BRANZOL|10=037|
20161121-19:45:50.056 : 8=FIX.4.2|9=58|35=0|34=321|49=BRANZOL|52=20161121-19:45:50.056|56=FIXSIM|10=037|
20161121-19:46:20.297 : 8=FIX.4.2|9=58|35=0|34=322|49=FIXSIM|52=20161121-19:46:20.297|56=BRANZOL|10=043|
20161121-19:46:20.297 : 8=FIX.4.2|9=58|35=0|34=322|49=BRANZOL|52=20161121-19:46:20.297|56=FIXSIM|10=043|
20161121-19:46:50.014 : 8=FIX.4.2|9=58|35=0|34=323|49=BRANZOL|52=20161121-19:46:50.014|56=FIXSIM|10=034|
20161121-19:46:50.014 : 8=FIX.4.2|9=58|35=0|34=323|49=FIXSIM|52=20161121-19:46:50.014|56=BRANZOL|10=034|
20161121-19:47:20.269 : 8=FIX.4.2|9=58|35=0|34=324|49=FIXSIM|52=20161121-19:47:20.268|56=BRANZOL|10=044|
20161121-19:47:20.269 : 8=FIX.4.2|9=58|35=0|34=324|49=BRANZOL|52=20161121-19:47:20.269|56=FIXSIM|10=045|
20161121-19:47:50.002 : 8=FIX.4.2|9=58|35=0|34=325|49=FIXSIM|52=20161121-19:47:50.002|56=BRANZOL|10=034|
20161121-19:47:50.003 : 8=FIX.4.2|9=58|35=0|34=325|49=BRANZOL|52=20161121-19:47:50.003|56=FIXSIM|10=035|
20161121-19:48:20.211 : 8=FIX.4.2|9=58|35=0|34=326|49=FIXSIM|52=20161121-19:48:20.210|56=BRANZOL|10=034|
20161121-19:48:20.211 : 8=FIX.4.2|9=58|35=0|34=326|49=BRANZOL|52=20161121-19:48:20.211|56=FIXSIM|10=035|
20161121-19:48:50.024 : 8=FIX.4.2|9=58|35=0|34=327|49=FIXSIM|52=20161121-19:48:50.023|56=BRANZOL|10=040|
20161121-19:48:50.024 : 8=FIX.4.2|9=58|35=0|34=327|49=BRANZOL|52=20161121-19:48:50.024|56=FIXSIM|10=041|
20161121-19:49:20.133 : 8=FIX.4.2|9=58|35=0|34=328|49=FIXSIM|52=20161121-19:49:20.133|56=BRANZOL|10=041|
20161121-19:49:20.133 : 8=FIX.4.2|9=58|35=0|34=328|49=BRANZOL|52=20161121-19:49:20.133|56=FIXSIM|10=041|
20161121-19:49:50.167 : 8=FIX.4.2|9=58|35=0|34=329|49=BRANZOL|52=20161121-19:49:50.167|56=FIXSIM|10=052|
20161121-19:49:50.167 : 8=FIX.4.2|9=58|35=0|34=329|49=FIXSIM|52=20161121-19:49:50.167|56=BRANZOL|10=052|
20161121-19:50:20.078 : 8=FIX.4.2|9=58|35=0|34=330|49=FIXSIM|52=20161121-19:50:20.077|56=BRANZOL|10=033|
20161121-19:50:20.078 : 8=FIX.4.2|9=58|35=0|34=330|49=BRANZOL|52=20161121-19:50:20.078|56=FIXSIM|10=034|
20161121-19:50:50.111 : 8=FIX.4.2|9=58|35=0|34=331|49=FIXSIM|52=20161121-19:50:50.111|56=BRANZOL|10=026|
20161121-19:50:50.111 : 8=FIX.4.2|9=58|35=0|34=331|49=BRANZOL|52=20161121-19:50:50.111|56=FIXSIM|10=026|
20161121-19:51:20.049 : 8=FIX.4.2|9=58|35=0|34=332|49=FIXSIM|52=20161121-19:51:20.049|56=BRANZOL|10=035|
20161121-19:51:20.049 : 8=FIX.4.2|9=58|35=0|34=332|49=BRANZOL|52=20161121-19:51:20.049|56=FIXSIM|10=035|
20161121-19:51:50.030 : 8=FIX.4.2|9=58|35=0|34=333|49=FIXSIM|52=20161121-19:51:50.030|56=BRANZOL|10=029|
20161121-19:51:50.031 : 8=FIX.4.2|9=58|35=0|34=333|49=BRANZOL|52=20161121-19:51:50.031|56=FIXSIM|10=030|
20161121-19:52:20.075 : 8=FIX.4.2|9=58|35=0|34=334|49=FIXSIM|52=20161121-19:52:20.075|56=BRANZOL|10=037|
20161121-19:52:20.075 : 8=FIX.4.2|9=58|35=0|34=334|49=BRANZOL|52=20161121-19:52:20.075|56=FIXSIM|10=037|
20161121-19:52:50.038 : 8=FIX.4.2|9=58|35=0|34=335|49=FIXSIM|52=20161121-19:52:50.038|56=BRANZOL|10=040|
20161121-19:52:50.039 : 8=FIX.4.2|9=58|35=0|34=335|49=BRANZOL|52=20161121-19:52:50.039|56=FIXSIM|10=041|
20161121-19:53:20.245 : 8=FIX.4.2|9=58|35=0|34=336|49=BRANZOL|52=20161121-19:53:20.245|56=FIXSIM|10=039|
20161121-19:53:20.245 : 8=FIX.4.2|9=58|35=0|34=336|49=FIXSIM|52=20161121-19:53:20.245|56=BRANZOL|10=039|
20161121-19:53:50.090 : 8=FIX.4.2|9=58|35=0|34=337|49=FIXSIM|52=20161121-19:53:50.089|56=BRANZOL|10=049|
20161121-19:53:50.090 : 8=FIX.4.2|9=58|35=0|34=337|49=BRANZOL|52=20161121-19:53:50.090|56=FIXSIM|10=041|
20161121-19:54:20.095 : 8=FIX.4.2|9=58|35=0|34=338|49=BRANZOL|52=20161121-19:54:20.095|56=FIXSIM|10=045|
20161121-19:54:20.096 : 8=FIX.4.2|9=58|35=0|34=338|49=FIXSIM|52=20161121-19:54:20.095|56=BRANZOL|10=045|
20161121-19:54:50.012 : 8=FIX.4.2|9=58|35=0|34=339|49=BRANZOL|52=20161121-19:54:50.012|56=FIXSIM|10=038|
20161121-19:54:50.012 : 8=FIX.4.2|9=58|35=0|34=339|49=FIXSIM|52=20161121-19:54:50.012|56=BRANZOL|10=038|
20161121-19:55:20.357 : 8=FIX.4.2|9=58|35=0|34=340|49=FIXSIM|52=20161121-19:55:20.356|56=BRANZOL|10=039|
20161121-19:55:20.357 : 8=FIX.4.2|9=58|35=0|34=340|49=BRANZOL|52=20161121-19:55:20.357|56=FIXSIM|10=040|
20161121-19:55:50.073 : 8=FIX.4.2|9=58|35=0|34=341|49=BRANZOL|52=20161121-19:55:50.072|56=FIXSIM|10=038|
20161121-19:55:50.073 : 8=FIX.4.2|9=58|35=0|34=341|49=FIXSIM|52=20161121-19:55:50.073|56=BRANZOL|10=039|
20161121-19:56:20.100 : 8=FIX.4.2|9=58|35=0|34=342|49=FIXSIM|52=20161121-19:56:20.100|56=BRANZOL|10=029|
20161121-19:56:20.101 : 8=FIX.4.2|9=58|35=0|34=342|49=BRANZOL|52=20161121-19:56:20.101|56=FIXSIM|10=030|
20161121-19:56:50.416 : 8=FIX.4.2|9=58|35=0|34=343|49=BRANZOL|52=20161121-19:56:50.416|56=FIXSIM|10=043|
20161121-19:56:50.417 : 8=FIX.4.2|9=58|35=0|34=343|49=FIXSIM|52=20161121-19:56:50.417|56=BRANZOL|10=044|
20161121-19:57:20.105 : 8=FIX.4.2|9=58|35=0|34=344|49=FIXSIM|52=20161121-19:57:20.104|56=BRANZOL|10=036|
20161121-19:57:20.105 : 8=FIX.4.2|9=58|35=0|34=344|49=BRANZOL|52=20161121-19:57:20.105|56=FIXSIM|10=037|
20161121-19:57:50.216 : 8=FIX.4.2|9=58|35=0|34=345|49=BRANZOL|52=20161121-19:57:50.216|56=FIXSIM|10=044|
20161121-19:57:50.217 : 8=FIX.4.2|9=58|35=0|34=345|49=FIXSIM|52=20161121-19:57:50.217|56=BRANZOL|10=045|
20161121-19:58:20.227 : 8=FIX.4.2|9=58|35=0|34=346|49=BRANZOL|52=20161121-19:58:20.227|56=FIXSIM|10=045|
20161121-19:58:20.228 : 8=FIX.4.2|9=58|35=0|34=346|49=FIXSIM|52=20161121-19:58:20.228|56=BRANZOL|10=046|
20161121-19:58:50.134 : 8=FIX.4.2|9=58|35=0|34=347|49=BRANZOL|52=20161121-19:58:50.134|56=FIXSIM|10=046|
20161121-19:58:50.135 : 8=FIX.4.2|9=58|35=0|34=347|49=FIXSIM|52=20161121-19:58:50.135|56=BRANZOL|10=047|
20161121-19:59:20.074 : 8=FIX.4.2|9=58|35=0|34=348|49=FIXSIM|52=20161121-19:59:20.074|56=BRANZOL|10=048|
20161121-19:59:20.074 : 8=FIX.4.2|9=58|35=0|34=348|49=BRANZOL|52=20161121-19:59:20.074|56=FIXSIM|10=048|
20161121-19:59:50.563 : 8=FIX.4.2|9=58|35=0|34=349|49=BRANZOL|52=20161121-19:59:50.562|56=FIXSIM|10=054|
20161121-19:59:50.563 : 8=FIX.4.2|9=58|35=0|34=349|49=FIXSIM|52=20161121-19:59:50.563|56=BRANZOL|10=055|
20161121-20:00:20.138 : 8=FIX.4.2|9=58|35=0|34=350|49=FIXSIM|52=20161121-20:00:20.138|56=BRANZOL|10=020|
20161121-20:00:20.138 : 8=FIX.4.2|9=58|35=0|34=350|49=BRANZOL|52=20161121-20:00:20.138|56=FIXSIM|10=020|
20161121-20:00:50.407 : 8=FIX.4.2|9=58|35=0|34=351|49=BRANZOL|52=20161121-20:00:50.407|56=FIXSIM|10=023|
20161121-20:00:50.408 : 8=FIX.4.2|9=58|35=0|34=351|49=FIXSIM|52=20161121-20:00:50.407|56=BRANZOL|10=023|
20161121-20:01:20.537 : 8=FIX.4.2|9=58|35=0|34=352|49=FIXSIM|52=20161121-20:01:20.537|56=BRANZOL|10=026|
20161121-20:01:20.538 : 8=FIX.4.2|9=58|35=0|34=352|49=BRANZOL|52=20161121-20:01:20.537|56=FIXSIM|10=026|
20161121-20:01:50.485 : 8=FIX.4.2|9=58|35=0|34=353|49=FIXSIM|52=20161121-20:01:50.485|56=BRANZOL|10=032|
20161121-20:01:50.485 : 8=FIX.4.2|9=58|35=0|34=353|49=BRANZOL|52=20161121-20:01:50.485|56=FIXSIM|10=032|
20161121-20:02:20.244 : 8=FIX.4.2|9=58|35=0|34=354|49=FIXSIM|52=20161121-20:02:20.244|56=BRANZOL|10=024|
20161121-20:02:20.245 : 8=FIX.4.2|9=58|35=0|34=354|49=BRANZOL|52=20161121-20:02:20.245|56=FIXSIM|10=025|
20161121-20:02:50.093 : 8=FIX.4.2|9=58|35=0|34=355|49=BRANZOL|52=20161121-20:02:50.090|56=FIXSIM|10=027|
20161121-20:02:50.096 : 8=FIX.4.2|9=58|35=0|34=355|49=FIXSIM|52=20161121-20:02:50.096|56=BRANZOL|10=033|
20161121-20:03:20.372 : 8=FIX.4.2|9=58|35=0|34=356|49=FIXSIM|52=20161121-20:03:20.372|56=BRANZOL|10=029|
20161121-20:03:20.373 : 8=FIX.4.2|9=58|35=0|34=356|49=BRANZOL|52=20161121-20:03:20.372|56=FIXSIM|10=029|
20161121-20:03:50.449 : 8=FIX.4.2|9=58|35=0|34=357|49=FIXSIM|52=20161121-20:03:50.448|56=BRANZOL|10=037|
20161121-20:03:50.449 : 8=FIX.4.2|9=58|35=0|34=357|49=BRANZOL|52=20161121-20:03:50.449|56=FIXSIM|10=038|
20161121-20:04:20.328 : 8=FIX.4.2|9=58|35=0|34=358|49=FIXSIM|52=20161121-20:04:20.328|56=BRANZOL|10=033|
20161121-20:04:20.329 : 8=FIX.4.2|9=58|35=0|34=358|49=BRANZOL|52=20161121-20:04:20.329|56=FIXSIM|10=034|
20161121-20:04:50.017 : 8=FIX.4.2|9=58|35=0|34=359|49=FIXSIM|52=20161121-20:04:50.017|56=BRANZOL|10=032|
20161121-20:04:50.018 : 8=FIX.4.2|9=58|35=0|34=359|49=BRANZOL|52=20161121-20:04:50.018|56=FIXSIM|10=033|
20161121-20:05:20.071 : 8=FIX.4.2|9=58|35=0|34=360|49=BRANZOL|52=20161121-20:05:20.071|56=FIXSIM|10=022|
20161121-20:05:20.072 : 8=FIX.4.2|9=58|35=0|34=360|49=FIXSIM|52=20161121-20:05:20.072|56=BRANZOL|10=023|
20161121-20:05:50.008 : 8=FIX.4.2|9=58|35=0|34=361|49=BRANZOL|52=20161121-20:05:50.008|56=FIXSIM|10=026|
20161121-20:05:50.008 : 8=FIX.4.2|9=58|35=0|34=361|49=FIXSIM|52=20161121-20:05:50.008|56=BRANZOL|10=026|
20161121-20:06:20.574 : 8=FIX.4.2|9=58|35=0|34=362|49=BRANZOL|52=20161121-20:06:20.573|56=FIXSIM|10=032|
20161121-20:06:20.574 : 8=FIX.4.2|9=58|35=0|34=362|49=FIXSIM|52=20161121-20:06:20.574|56=BRANZOL|10=033|
20161121-20:06:50.285 : 8=FIX.4.2|9=58|35=0|34=363|49=BRANZOL|52=20161121-20:06:50.285|56=FIXSIM|10=036|
20161121-20:06:50.286 : 8=FIX.4.2|9=58|35=0|34=363|49=FIXSIM|52=20161121-20:06:50.286|56=BRANZOL|10=037|
20161121-20:07:20.623 : 8=FIX.4.2|9=58|35=0|34=364|49=BRANZOL|52=20161121-20:07:20.623|56=FIXSIM|10=031|
20161121-20:07:20.623 : 8=FIX.4.2|9=58|35=0|34=364|49=FIXSIM|52=20161121-20:07:20.623|56=BRANZOL|10=031|
20161121-20:07:50.106 : 8=FIX.4.2|9=58|35=0|34=365|49=BRANZOL|52=20161121-20:07:50.106|56=FIXSIM|10=031|
20161121-20:07:50.107 : 8=FIX.4.2|9=58|35=0|34=365|49=FIXSIM|52=20161121-20:07:50.107|56=BRANZOL|10=032|
20161121-20:08:20.064 : 8=FIX.4.2|9=58|35=0|34=366|49=FIXSIM|52=20161121-20:08:20.064|56=BRANZOL|10=033|
20161121-20:08:20.064 : 8=FIX.4.2|9=58|35=0|34=366|49=BRANZOL|52=20161121-20:08:20.064|56=FIXSIM|10=033|
20161121-20:08:50.054 : 8=FIX.4.2|9=58|35=0|34=367|49=BRANZOL|52=20161121-20:08:50.054|56=FIXSIM|10=036|
20161121-20:08:50.054 : 8=FIX.4.2|9=58|35=0|34=367|49=FIXSIM|52=20161121-20:08:50.054|56=BRANZOL|10=036|
20161121-20:09:20.389 : 8=FIX.4.2|9=58|35=0|34=368|49=FIXSIM|52=20161121-20:09:20.388|56=BRANZOL|10=045|
20161121-20:09:20.389 : 8=FIX.4.2|9=58|35=0|34=368|49=BRANZOL|52=20161121-20:09:20.389|56=FIXSIM|10=046|
20161121-20:09:50.137 : 8=FIX.4.2|9=58|35=0|34=369|49=BRANZOL|52=20161121-20:09:50.137|56=FIXSIM|10=041|
20161121-20:09:50.137 : 8=FIX.4.2|9=58|35=0|34=369|49=FIXSIM|52=20161121-20:09:50.137|56=BRANZOL|10=041|
20161121-20:10:20.011 : 8=FIX.4.2|9=58|35=0|34=370|49=FIXSIM|52=20161121-20:10:20.010|56=BRANZOL|10=012|
20161121-20:10:20.011 : 8=FIX.4.2|9=58|35=0|34=370|49=BRANZOL|52=20161121-20:10:20.011|56=FIXSIM|10=013|
20161121-20:10:50.236 : 8=FIX.4.2|9=58|35=0|34=371|49=BRANZOL|52=20161121-20:10:50.236|56=FIXSIM|10=026|
20161121-20:10:50.236 : 8=FIX.4.2|9=58|35=0|34=371|49=FIXSIM|52=20161121-20:10:50.236|56=BRANZOL|10=026|
20161121-20:11:20.334 : 8=FIX.4.2|9=58|35=0|34=372|49=BRANZOL|52=20161121-20:11:20.334|56=FIXSIM|10=024|
20161121-20:11:20.335 : 8=FIX.4.2|9=58|35=0|34=372|49=FIXSIM|52=20161121-20:11:20.335|56=BRANZOL|10=025|
20161121-20:11:50.308 : 8=FIX.4.2|9=58|35=0|34=373|49=BRANZOL|52=20161121-20:11:50.308|56=FIXSIM|10=029|
20161121-20:11:50.308 : 8=FIX.4.2|9=58|35=0|34=373|49=FIXSIM|52=20161121-20:11:50.308|56=BRANZOL|10=029|
20161121-20:12:20.069 : 8=FIX.4.2|9=58|35=0|34=374|49=FIXSIM|52=20161121-20:12:20.068|56=BRANZOL|10=031|
20161121-20:12:20.069 : 8=FIX.4.2|9=58|35=0|34=374|49=BRANZOL|52=20161121-20:12:20.069|56=FIXSIM|10=032|
20161121-20:12:50.377 : 8=FIX.4.2|9=58|35=0|34=375|49=FIXSIM|52=20161121-20:12:50.376|56=BRANZOL|10=037|
20161121-20:12:50.377 : 8=FIX.4.2|9=58|35=0|34=375|49=BRANZOL|52=20161121-20:12:50.377|56=FIXSIM|10=038|
20161121-20:13:20.437 : 8=FIX.4.2|9=58|35=0|34=376|49=FIXSIM|52=20161121-20:13:20.436|56=BRANZOL|10=033|
20161121-20:13:20.437 : 8=FIX.4.2|9=58|35=0|34=376|49=BRANZOL|52=20161121-20:13:20.437|56=FIXSIM|10=034|
20161121-20:13:50.267 : 8=FIX.4.2|9=58|35=0|34=377|49=FIXSIM|52=20161121-20:13:50.267|56=BRANZOL|10=039|
20161121-20:13:50.268 : 8=FIX.4.2|9=58|35=0|34=377|49=BRANZOL|52=20161121-20:13:50.268|56=FIXSIM|10=040|
20161121-20:14:20.332 : 8=FIX.4.2|9=58|35=0|34=378|49=BRANZOL|52=20161121-20:14:20.332|56=FIXSIM|10=031|
20161121-20:14:20.333 : 8=FIX.4.2|9=58|35=0|34=378|49=FIXSIM|52=20161121-20:14:20.332|56=BRANZOL|10=031|
20161121-20:14:50.264 : 8=FIX.4.2|9=58|35=0|34=379|49=BRANZOL|52=20161121-20:14:50.264|56=FIXSIM|10=039|
20161121-20:14:50.265 : 8=FIX.4.2|9=58|35=0|34=379|49=FIXSIM|52=20161121-20:14:50.265|56=BRANZOL|10=040|
20161121-20:15:20.058 : 8=FIX.4.2|9=58|35=0|34=380|49=BRANZOL|52=20161121-20:15:20.058|56=FIXSIM|10=030|
20161121-20:15:20.059 : 8=FIX.4.2|9=58|35=0|34=380|49=FIXSIM|52=20161121-20:15:20.058|56=BRANZOL|10=030|
20161121-20:15:50.397 : 8=FIX.4.2|9=58|35=0|34=381|49=FIXSIM|52=20161121-20:15:50.397|56=BRANZOL|10=040|
20161121-20:15:50.397 : 8=FIX.4.2|9=58|35=0|34=381|49=BRANZOL|52=20161121-20:15:50.397|56=FIXSIM|10=040|
20161121-20:16:20.461 : 8=FIX.4.2|9=58|35=0|34=382|49=FIXSIM|52=20161121-20:16:20.460|56=BRANZOL|10=030|
20161121-20:16:20.461 : 8=FIX.4.2|9=58|35=0|34=382|49=BRANZOL|52=20161121-20:16:20.461|56=FIXSIM|10=031|
20161121-20:16:50.261 : 8=FIX.4.2|9=58|35=0|34=383|49=FIXSIM|52=20161121-20:16:50.261|56=BRANZOL|10=033|
20161121-20:16:50.261 : 8=FIX.4.2|9=58|35=0|34=383|49=BRANZOL|52=20161121-20:16:50.261|56=FIXSIM|10=033|
20161121-20:17:20.229 : 8=FIX.4.2|9=58|35=0|34=384|49=BRANZOL|52=20161121-20:17:20.229|56=FIXSIM|10=036|
20161121-20:17:20.230 : 8=FIX.4.2|9=58|35=0|34=384|49=FIXSIM|52=20161121-20:17:20.230|56=BRANZOL|10=028|
20161121-20:17:50.068 : 8=FIX.4.2|9=58|35=0|34=385|49=BRANZOL|52=20161121-20:17:50.068|56=FIXSIM|10=041|
20161121-20:17:50.069 : 8=FIX.4.2|9=58|35=0|34=385|49=FIXSIM|52=20161121-20:17:50.068|56=BRANZOL|10=041|
20161121-20:18:20.446 : 8=FIX.4.2|9=58|35=0|34=386|49=BRANZOL|52=20161121-20:18:20.446|56=FIXSIM|10=040|
20161121-20:18:20.446 : 8=FIX.4.2|9=58|35=0|34=386|49=FIXSIM|52=20161121-20:18:20.446|56=BRANZOL|10=040|
20161121-20:18:50.015 : 8=FIX.4.2|9=58|35=0|34=387|49=BRANZOL|52=20161121-20:18:50.015|56=FIXSIM|10=036|
20161121-20:18:50.016 : 8=FIX.4.2|9=58|35=0|34=387|49=FIXSIM|52=20161121-20:18:50.016|56=BRANZOL|10=037|
20161121-20:19:20.114 : 8=FIX.4.2|9=58|35=0|34=388|49=BRANZOL|52=20161121-20:19:20.114|56=FIXSIM|10=035|
20161121-20:19:20.115 : 8=FIX.4.2|9=58|35=0|34=388|49=FIXSIM|52=20161121-20:19:20.114|56=BRANZOL|10=035|
20161121-20:19:50.070 : 8=FIX.4.2|9=58|35=0|34=389|49=BRANZOL|52=20161121-20:19:50.070|56=FIXSIM|10=040|
20161121-20:19:50.071 : 8=FIX.4.2|9=58|35=0|34=389|49=FIXSIM|52=20161121-20:19:50.071|56=BRANZOL|10=041|
20161121-20:20:20.555 : 8=FIX.4.2|9=58|35=0|34=390|49=BRANZOL|52=20161121-20:20:20.555|56=FIXSIM|10=029|
20161121-20:20:20.555 : 8=FIX.4.2|9=58|35=0|34=390|49=FIXSIM|52=20161121-20:20:20.555|56=BRANZOL|10=029|
20161121-20:20:50.180 : 8=FIX.4.2|9=58|35=0|34=391|49=FIXSIM|52=20161121-20:20:50.179|56=BRANZOL|10=035|
20161121-20:20:50.180 : 8=FIX.4.2|9=58|35=0|34=391|49=BRANZOL|52=20161121-20:20:50.180|56=FIXSIM|10=027|
20161121-20:21:20.170 : 8=FIX.4.2|9=58|35=0|34=392|49=FIXSIM|52=20161121-20:21:20.169|56=BRANZOL|10=033|
20161121-20:21:20.170 : 8=FIX.4.2|9=58|35=0|34=392|49=BRANZOL|52=20161121-20:21:20.170|56=FIXSIM|10=025|
20161121-20:21:50.231 : 8=FIX.4.2|9=58|35=0|34=393|49=BRANZOL|52=20161121-20:21:50.231|56=FIXSIM|10=027|
20161121-20:21:50.232 : 8=FIX.4.2|9=58|35=0|34=393|49=FIXSIM|52=20161121-20:21:50.231|56=BRANZOL|10=027|
20161121-20:22:20.152 : 8=FIX.4.2|9=58|35=0|34=394|49=BRANZOL|52=20161121-20:22:20.152|56=FIXSIM|10=028|
20161121-20:22:20.153 : 8=FIX.4.2|9=58|35=0|34=394|49=FIXSIM|52=20161121-20:22:20.152|56=BRANZOL|10=028|
20161121-20:22:50.500 : 8=FIX.4.2|9=58|35=0|34=395|49=FIXSIM|52=20161121-20:22:50.500|56=BRANZOL|10=029|
20161121-20:22:50.500 : 8=FIX.4.2|9=58|35=0|34=395|49=BRANZOL|52=20161121-20:22:50.500|56=FIXSIM|10=029|
20161121-20:23:20.144 : 8=FIX.4.2|9=58|35=0|34=396|49=BRANZOL|52=20161121-20:23:20.144|56=FIXSIM|10=032|
20161121-20:23:20.144 : 8=FIX.4.2|9=58|35=0|34=396|49=FIXSIM|52=20161121-20:23:20.144|56=BRANZOL|10=032|
20161121-20:23:50.283 : 8=FIX.4.2|9=58|35=0|34=397|49=BRANZOL|52=20161121-20:23:50.283|56=FIXSIM|10=040|
20161121-20:23:50.284 : 8=FIX.4.2|9=58|35=0|34=397|49=FIXSIM|52=20161121-20:23:50.284|56=BRANZOL|10=041|
20161121-20:24:20.238 : 8=FIX.4.2|9=58|35=0|34=398|49=FIXSIM|52=20161121-20:24:20.237|56=BRANZOL|10=038|
20161121-20:24:20.238 : 8=FIX.4.2|9=58|35=0|34=398|49=BRANZOL|52=20161121-20:24:20.238|56=FIXSIM|10=039|
20161121-20:24:50.076 : 8=FIX.4.2|9=58|35=0|34=399|49=BRANZOL|52=20161121-20:24:50.076|56=FIXSIM|10=043|
20161121-20:24:50.077 : 8=FIX.4.2|9=58|35=0|34=399|49=FIXSIM|52=20161121-20:24:50.077|56=BRANZOL|10=044|
20161121-20:25:20.389 : 8=FIX.4.2|9=58|35=0|34=400|49=BRANZOL|52=20161121-20:25:20.389|56=FIXSIM|10=031|
20161121-20:25:20.389 : 8=FIX.4.2|9=58|35=0|34=400|49=FIXSIM|52=20161121-20:25:20.389|56=BRANZOL|10=031|
20161121-20:25:50.471 : 8=FIX.4.2|9=58|35=0|34=401|49=FIXSIM|52=20161121-20:25:50.470|56=BRANZOL|10=026|
20161121-20:25:50.471 : 8=FIX.4.2|9=58|35=0|34=401|49=BRANZOL|52=20161121-20:25:50.471|56=FIXSIM|10=027|
20161121-20:26:20.163 : 8=FIX.4.2|9=58|35=0|34=402|49=FIXSIM|52=20161121-20:26:20.162|56=BRANZOL|10=023|
20161121-20:26:20.163 : 8=FIX.4.2|9=58|35=0|34=402|49=BRANZOL|52=20161121-20:26:20.163|56=FIXSIM|10=024|
20161121-20:26:50.019 : 8=FIX.4.2|9=58|35=0|34=403|49=BRANZOL|52=20161121-20:26:50.019|56=FIXSIM|10=028|
20161121-20:26:50.019 : 8=FIX.4.2|9=58|35=0|34=403|49=FIXSIM|52=20161121-20:26:50.019|56=BRANZOL|10=028|
20161121-20:27:20.126 : 8=FIX.4.2|9=58|35=0|34=404|49=FIXSIM|52=20161121-20:27:20.126|56=BRANZOL|10=026|
20161121-20:27:20.127 : 8=FIX.4.2|9=58|35=0|34=404|49=BRANZOL|52=20161121-20:27:20.126|56=FIXSIM|10=026|
20161121-20:27:50.267 : 8=FIX.4.2|9=58|35=0|34=405|49=BRANZOL|52=20161121-20:27:50.267|56=FIXSIM|10=036|
20161121-20:27:50.268 : 8=FIX.4.2|9=58|35=0|34=405|49=FIXSIM|52=20161121-20:27:50.268|56=BRANZOL|10=037|
20161121-20:28:20.117 : 8=FIX.4.2|9=58|35=0|34=406|49=FIXSIM|52=20161121-20:28:20.117|56=BRANZOL|10=029|
20161121-20:28:20.117 : 8=FIX.4.2|9=58|35=0|34=406|49=BRANZOL|52=20161121-20:28:20.117|56=FIXSIM|10=029|
20161121-20:28:50.087 : 8=FIX.4.2|9=58|35=0|34=407|49=FIXSIM|52=20161121-20:28:50.087|56=BRANZOL|10=039|
20161121-20:28:50.087 : 8=FIX.4.2|9=58|35=0|34=407|49=BRANZOL|52=20161121-20:28:50.087|56=FIXSIM|10=039|
20161121-20:29:20.170 : 8=FIX.4.2|9=58|35=0|34=408|49=FIXSIM|52=20161121-20:29:20.170|56=BRANZOL|10=031|
20161121-20:29:20.171 : 8=FIX.4.2|9=58|35=0|34=408|49=BRANZOL|52=20161121-20:29:20.171|56=FIXSIM|10=032|
20161121-20:29:50.273 : 8=FIX.4.2|9=58|35=0|34=409|49=BRANZOL|52=20161121-20:29:50.273|56=FIXSIM|10=039|
20161121-20:29:50.273 : 8=FIX.4.2|9=58|35=0|34=409|49=FIXSIM|52=20161121-20:29:50.273|56=BRANZOL|10=039|
20161121-20:30:20.209 : 8=FIX.4.2|9=58|35=0|34=410|49=BRANZOL|52=20161121-20:30:20.209|56=FIXSIM|10=019|
20161121-20:30:20.210 : 8=FIX.4.2|9=58|35=0|34=410|49=FIXSIM|52=20161121-20:30:20.210|56=BRANZOL|10=011|
20161121-20:30:50.461 : 8=FIX.4.2|9=58|35=0|34=411|49=FIXSIM|52=20161121-20:30:50.461|56=BRANZOL|10=023|
20161121-20:30:50.461 : 8=FIX.4.2|9=58|35=0|34=411|49=BRANZOL|52=20161121-20:30:50.461|56=FIXSIM|10=023|
20161121-20:31:20.052 : 8=FIX.4.2|9=58|35=0|34=412|49=BRANZOL|52=20161121-20:31:20.052|56=FIXSIM|10=018|
20161121-20:31:20.053 : 8=FIX.4.2|9=58|35=0|34=412|49=FIXSIM|52=20161121-20:31:20.053|56=BRANZOL|10=019|
20161121-20:31:50.073 : 8=FIX.4.2|9=58|35=0|34=413|49=BRANZOL|52=20161121-20:31:50.073|56=FIXSIM|10=025|
20161121-20:31:50.073 : 8=FIX.4.2|9=58|35=0|34=413|49=FIXSIM|52=20161121-20:31:50.073|56=BRANZOL|10=025|
20161121-20:32:20.326 : 8=FIX.4.2|9=58|35=0|34=414|49=FIXSIM|52=20161121-20:32:20.325|56=BRANZOL|10=024|
20161121-20:32:20.326 : 8=FIX.4.2|9=58|35=0|34=414|49=BRANZOL|52=20161121-20:32:20.326|56=FIXSIM|10=025|
20161121-20:32:50.051 : 8=FIX.4.2|9=58|35=0|34=415|49=FIXSIM|52=20161121-20:32:50.051|56=BRANZOL|10=024|
20161121-20:32:50.051 : 8=FIX.4.2|9=58|35=0|34=415|49=BRANZOL|52=20161121-20:32:50.051|56=FIXSIM|10=024|
20161121-20:33:20.109 : 8=FIX.4.2|9=58|35=0|34=416|49=BRANZOL|52=20161121-20:33:20.109|56=FIXSIM|10=027|
20161121-20:33:20.110 : 8=FIX.4.2|9=58|35=0|34=416|49=FIXSIM|52=20161121-20:33:20.110|56=BRANZOL|10=019|
20161121-20:33:50.166 : 8=FIX.4.2|9=58|35=0|34=417|49=FIXSIM|52=20161121-20:33:50.166|56=BRANZOL|10=034|
20161121-20:33:50.166 : 8=FIX.4.2|9=58|35=0|34=417|49=BRANZOL|52=20161121-20:33:50.166|56=FIXSIM|10=034|
20161121-20:34:20.063 : 8=FIX.4.2|9=58|35=0|34=418|49=FIXSIM|52=20161121-20:34:20.062|56=BRANZOL|10=028|
20161121-20:34:20.063 : 8=FIX.4.2|9=58|35=0|34=418|49=BRANZOL|52=20161121-20:34:20.063|56=FIXSIM|10=029|
20161121-20:34:50.153 : 8=FIX.4.2|9=58|35=0|34=419|49=BRANZOL|52=20161121-20:34:50.153|56=FIXSIM|10=033|
20161121-20:34:50.154 : 8=FIX.4.2|9=58|35=0|34=419|49=FIXSIM|52=20161121-20:34:50.153|56=BRANZOL|10=033|
20161121-20:35:20.045 : 8=FIX.4.2|9=58|35=0|34=420|49=BRANZOL|52=20161121-20:35:20.045|56=FIXSIM|10=023|
20161121-20:35:20.046 : 8=FIX.4.2|9=58|35=0|34=420|49=FIXSIM|52=20161121-20:35:20.045|56=BRANZOL|10=023|
20161121-20:35:50.243 : 8=FIX.4.2|9=58|35=0|34=421|49=FIXSIM|52=20161121-20:35:50.243|56=BRANZOL|10=027|
20161121-20:35:50.244 : 8=FIX.4.2|9=58|35=0|34=421|49=BRANZOL|52=20161121-20:35:50.244|56=FIXSIM|10=028|
20161121-20:36:20.159 : 8=FIX.4.2|9=58|35=0|34=422|49=FIXSIM|52=20161121-20:36:20.159|56=BRANZOL|10=032|
20161121-20:36:20.159 : 8=FIX.4.2|9=58|35=0|34=422|49=BRANZOL|52=20161121-20:36:20.159|56=FIXSIM|10=032|
20161121-20:36:50.044 : 8=FIX.4.2|9=58|35=0|34=423|49=BRANZOL|52=20161121-20:36:50.043|56=FIXSIM|10=028|
20161121-20:36:50.044 : 8=FIX.4.2|9=58|35=0|34=423|49=FIXSIM|52=20161121-20:36:50.044|56=BRANZOL|10=029|
20161121-20:37:20.114 : 8=FIX.4.2|9=58|35=0|34=424|49=FIXSIM|52=20161121-20:37:20.114|56=BRANZOL|10=026|
20161121-20:37:20.115 : 8=FIX.4.2|9=58|35=0|34=424|49=BRANZOL|52=20161121-20:37:20.115|56=FIXSIM|10=027|
20161121-20:37:50.161 : 8=FIX.4.2|9=58|35=0|34=425|49=FIXSIM|52=20161121-20:37:50.161|56=BRANZOL|10=032|
20161121-20:37:50.161 : 8=FIX.4.2|9=58|35=0|34=425|49=BRANZOL|52=20161121-20:37:50.161|56=FIXSIM|10=032|
20161121-20:38:20.005 : 8=FIX.4.2|9=58|35=0|34=426|49=BRANZOL|52=20161121-20:38:20.005|56=FIXSIM|10=028|
20161121-20:38:20.006 : 8=FIX.4.2|9=58|35=0|34=426|49=FIXSIM|52=20161121-20:38:20.006|56=BRANZOL|10=029|
20161121-20:38:50.166 : 8=FIX.4.2|9=58|35=0|34=427|49=FIXSIM|52=20161121-20:38:50.166|56=BRANZOL|10=040|
20161121-20:38:50.167 : 8=FIX.4.2|9=58|35=0|34=427|49=BRANZOL|52=20161121-20:38:50.167|56=FIXSIM|10=041|
20161121-20:39:20.070 : 8=FIX.4.2|9=58|35=0|34=428|49=FIXSIM|52=20161121-20:39:20.070|56=BRANZOL|10=033|
20161121-20:39:20.071 : 8=FIX.4.2|9=58|35=0|34=428|49=BRANZOL|52=20161121-20:39:20.071|56=FIXSIM|10=034|
20161121-20:39:50.323 : 8=FIX.4.2|9=58|35=0|34=429|49=FIXSIM|52=20161121-20:39:50.323|56=BRANZOL|10=038|
20161121-20:39:50.323 : 8=FIX.4.2|9=58|35=0|34=429|49=BRANZOL|52=20161121-20:39:50.323|56=FIXSIM|10=038|
20161121-20:40:20.166 : 8=FIX.4.2|9=58|35=0|34=430|49=FIXSIM|52=20161121-20:40:20.166|56=BRANZOL|10=024|
20161121-20:40:20.166 : 8=FIX.4.2|9=58|35=0|34=430|49=BRANZOL|52=20161121-20:40:20.166|56=FIXSIM|10=024|
20161121-20:40:50.051 : 8=FIX.4.2|9=58|35=0|34=431|49=BRANZOL|52=20161121-20:40:50.051|56=FIXSIM|10=021|
20161121-20:40:50.051 : 8=FIX.4.2|9=58|35=0|34=431|49=FIXSIM|52=20161121-20:40:50.051|56=BRANZOL|10=021|
20161121-20:41:20.023 : 8=FIX.4.2|9=58|35=0|34=432|49=FIXSIM|52=20161121-20:41:20.023|56=BRANZOL|10=019|
20161121-20:41:20.023 : 8=FIX.4.2|9=58|35=0|34=432|49=BRANZOL|52=20161121-20:41:20.023|56=FIXSIM|10=019|
20161121-20:41:50.005 : 8=FIX.4.2|9=58|35=0|34=433|49=BRANZOL|52=20161121-20:41:50.004|56=FIXSIM|10=022|
20161121-20:41:50.005 : 8=FIX.4.2|9=58|35=0|34=433|49=FIXSIM|52=20161121-20:41:50.005|56=BRANZOL|10=023|
20161121-20:42:20.058 : 8=FIX.4.2|9=58|35=0|34=434|49=FIXSIM|52=20161121-20:42:20.058|56=BRANZOL|10=030|
20161121-20:42:20.059 : 8=FIX.4.2|9=58|35=0|34=434|49=BRANZOL|52=20161121-20:42:20.058|56=FIXSIM|10=030|
20161121-20:42:50.105 : 8=FIX.4.2|9=58|35=0|34=435|49=BRANZOL|52=20161121-20:42:50.105|56=FIXSIM|10=027|
20161121-20:42:50.106 : 8=FIX.4.2|9=58|35=0|34=435|49=FIXSIM|52=20161121-20:42:50.106|56=BRANZOL|10=028|
20161121-20:43:20.133 : 8=FIX.4.2|9=58|35=0|34=436|49=FIXSIM|52=20161121-20:43:20.133|56=BRANZOL|10=027|
20161121-20:43:20.133 : 8=FIX.4.2|9=58|35=0|34=436|49=BRANZOL|52=20161121-20:43:20.133|56=FIXSIM|10=027|
20161121-20:43:50.000 : 8=FIX.4.2|9=58|35=0|34=437|49=FIXSIM|52=20161121-20:43:50.000|56=BRANZOL|10=024|
20161121-20:43:50.000 : 8=FIX.4.2|9=58|35=0|34=437|49=BRANZOL|52=20161121-20:43:50.000|56=FIXSIM|10=024|
20161121-20:44:20.177 : 8=FIX.4.2|9=58|35=0|34=438|49=FIXSIM|52=20161121-20:44:20.176|56=BRANZOL|10=037|
20161121-20:44:20.177 : 8=FIX.4.2|9=58|35=0|34=438|49=BRANZOL|52=20161121-20:44:20.177|56=FIXSIM|10=038|
20161121-20:44:50.046 : 8=FIX.4.2|9=58|35=0|34=439|49=FIXSIM|52=20161121-20:44:50.046|56=BRANZOL|10=037|
20161121-20:44:50.046 : 8=FIX.4.2|9=58|35=0|34=439|49=BRANZOL|52=20161121-20:44:50.046|56=FIXSIM|10=037|
20161121-20:45:20.114 : 8=FIX.4.2|9=58|35=0|34=440|49=FIXSIM|52=20161121-20:45:20.114|56=BRANZOL|10=023|
20161121-20:45:20.114 : 8=FIX.4.2|9=58|35=0|34=440|49=BRANZOL|52=20161121-20:45:20.114|56=FIXSIM|10=023|
20161121-20:45:50.118 : 8=FIX.4.2|9=58|35=0|34=441|49=FIXSIM|52=20161121-20:45:50.118|56=BRANZOL|10=031|
20161121-20:45:50.118 : 8=FIX.4.2|9=58|35=0|34=441|49=BRANZOL|52=20161121-20:45:50.118|56=FIXSIM|10=031|
20161121-20:46:20.087 : 8=FIX.4.2|9=58|35=0|34=442|49=FIXSIM|52=20161121-20:46:20.087|56=BRANZOL|10=035|
20161121-20:46:20.088 : 8=FIX.4.2|9=58|35=0|34=442|49=BRANZOL|52=20161121-20:46:20.087|56=FIXSIM|10=035|
20161121-20:46:50.037 : 8=FIX.4.2|9=58|35=0|34=443|49=FIXSIM|52=20161121-20:46:50.036|56=BRANZOL|10=033|
20161121-20:46:50.037 : 8=FIX.4.2|9=58|35=0|34=443|49=BRANZOL|52=20161121-20:46:50.037|56=FIXSIM|10=034|
20161121-20:47:20.384 : 8=FIX.4.2|9=58|35=0|34=444|49=BRANZOL|52=20161121-20:47:20.384|56=FIXSIM|10=038|
20161121-20:47:20.384 : 8=FIX.4.2|9=58|35=0|34=444|49=FIXSIM|52=20161121-20:47:20.384|56=BRANZOL|10=038|
20161121-20:47:50.310 : 8=FIX.4.2|9=58|35=0|34=445|49=FIXSIM|52=20161121-20:47:50.310|56=BRANZOL|10=031|
20161121-20:47:50.311 : 8=FIX.4.2|9=58|35=0|34=445|49=BRANZOL|52=20161121-20:47:50.310|56=FIXSIM|10=031|
20161121-20:48:20.082 : 8=FIX.4.2|9=58|35=0|34=446|49=FIXSIM|52=20161121-20:48:20.082|56=BRANZOL|10=036|
20161121-20:48:20.083 : 8=FIX.4.2|9=58|35=0|34=446|49=BRANZOL|52=20161121-20:48:20.083|56=FIXSIM|10=037|
20161121-20:48:50.103 : 8=FIX.4.2|9=58|35=0|34=447|49=BRANZOL|52=20161121-20:48:50.103|56=FIXSIM|10=034|
20161121-20:48:50.104 : 8=FIX.4.2|9=58|35=0|34=447|49=FIXSIM|52=20161121-20:48:50.104|56=BRANZOL|10=035|
20161121-20:49:20.298 : 8=FIX.4.2|9=58|35=0|34=448|49=BRANZOL|52=20161121-20:49:20.298|56=FIXSIM|10=048|
20161121-20:49:20.299 : 8=FIX.4.2|9=58|35=0|34=448|49=FIXSIM|52=20161121-20:49:20.298|56=BRANZOL|10=048|
20161121-20:49:50.196 : 8=FIX.4.2|9=58|35=0|34=449|49=BRANZOL|52=20161121-20:49:50.196|56=FIXSIM|10=049|
20161121-20:49:50.197 : 8=FIX.4.2|9=58|35=0|34=449|49=FIXSIM|52=20161121-20:49:50.196|56=BRANZOL|10=049|
20161121-20:50:20.251 : 8=FIX.4.2|9=58|35=0|34=450|49=BRANZOL|52=20161121-20:50:20.251|56=FIXSIM|10=022|
20161121-20:50:20.252 : 8=FIX.4.2|9=58|35=0|34=450|49=FIXSIM|52=20161121-20:50:20.252|56=BRANZOL|10=023|
20161121-20:50:50.000 : 8=FIX.4.2|9=58|35=0|34=451|49=BRANZOL|52=20161121-20:50:50.000|56=FIXSIM|10=018|
20161121-20:50:50.001 : 8=FIX.4.2|9=58|35=0|34=451|49=FIXSIM|52=20161121-20:50:50.000|56=BRANZOL|10=018|
20161121-20:51:20.327 : 8=FIX.4.2|9=58|35=0|34=452|49=BRANZOL|52=20161121-20:51:20.327|56=FIXSIM|10=029|
20161121-20:51:20.328 : 8=FIX.4.2|9=58|35=0|34=452|49=FIXSIM|52=20161121-20:51:20.328|56=BRANZOL|10=030|
20161121-20:51:50.355 : 8=FIX.4.2|9=58|35=0|34=453|49=BRANZOL|52=20161121-20:51:50.355|56=FIXSIM|10=034|
20161121-20:51:50.356 : 8=FIX.4.2|9=58|35=0|34=453|49=FIXSIM|52=20161121-20:51:50.356|56=BRANZOL|10=035|
20161121-20:52:20.082 : 8=FIX.4.2|9=58|35=0|34=454|49=BRANZOL|52=20161121-20:52:20.082|56=FIXSIM|10=030|
20161121-20:52:20.083 : 8=FIX.4.2|9=58|35=0|34=454|49=FIXSIM|52=20161121-20:52:20.082|56=BRANZOL|10=030|
20161121-20:52:50.259 : 8=FIX.4.2|9=58|35=0|34=455|49=FIXSIM|52=20161121-20:52:50.259|56=BRANZOL|10=040|
20161121-20:52:50.260 : 8=FIX.4.2|9=58|35=0|34=455|49=BRANZOL|52=20161121-20:52:50.260|56=FIXSIM|10=032|
20161121-20:53:20.198 : 8=FIX.4.2|9=58|35=0|34=456|49=BRANZOL|52=20161121-20:53:20.198|56=FIXSIM|10=041|
20161121-20:53:20.198 : 8=FIX.4.2|9=58|35=0|34=456|49=FIXSIM|52=20161121-20:53:20.198|56=BRANZOL|10=041|
20161121-20:53:50.026 : 8=FIX.4.2|9=58|35=0|34=457|49=FIXSIM|52=20161121-20:53:50.025|56=BRANZOL|10=034|
20161121-20:53:50.026 : 8=FIX.4.2|9=58|35=0|34=457|49=BRANZOL|52=20161121-20:53:50.026|56=FIXSIM|10=035|
20161121-20:54:20.119 : 8=FIX.4.2|9=58|35=0|34=458|49=BRANZOL|52=20161121-20:54:20.119|56=FIXSIM|10=037|
20161121-20:54:20.120 : 8=FIX.4.2|9=58|35=0|34=458|49=FIXSIM|52=20161121-20:54:20.119|56=BRANZOL|10=037|
20161121-20:54:50.265 : 8=FIX.4.2|9=58|35=0|34=459|49=BRANZOL|52=20161121-20:54:50.265|56=FIXSIM|10=043|
20161121-20:54:50.266 : 8=FIX.4.2|9=58|35=0|34=459|49=FIXSIM|52=20161121-20:54:50.266|56=BRANZOL|10=044|
20161121-20:55:20.053 : 8=FIX.4.2|9=58|35=0|34=460|49=BRANZOL|52=20161121-20:55:20.053|56=FIXSIM|10=028|
20161121-20:55:20.054 : 8=FIX.4.2|9=58|35=0|34=460|49=FIXSIM|52=20161121-20:55:20.054|56=BRANZOL|10=029|
20161121-20:55:50.066 : 8=FIX.4.2|9=58|35=0|34=461|49=FIXSIM|52=20161121-20:55:50.065|56=BRANZOL|10=035|
20161121-20:55:50.066 : 8=FIX.4.2|9=58|35=0|34=461|49=BRANZOL|52=20161121-20:55:50.066|56=FIXSIM|10=036|
20161121-20:56:20.317 : 8=FIX.4.2|9=58|35=0|34=462|49=BRANZOL|52=20161121-20:56:20.317|56=FIXSIM|10=034|
20161121-20:56:20.318 : 8=FIX.4.2|9=58|35=0|34=462|49=FIXSIM|52=20161121-20:56:20.318|56=BRANZOL|10=035|
20161121-20:56:50.180 : 8=FIX.4.2|9=58|35=0|34=463|49=BRANZOL|52=20161121-20:56:50.180|56=FIXSIM|10=036|
20161121-20:56:50.181 : 8=FIX.4.2|9=58|35=0|34=463|49=FIXSIM|52=20161121-20:56:50.181|56=BRANZOL|10=037|
20161121-20:57:20.037 : 8=FIX.4.2|9=58|35=0|34=464|49=BRANZOL|52=20161121-20:57:20.037|56=FIXSIM|10=036|
20161121-20:57:20.038 : 8=FIX.4.2|9=58|35=0|34=464|49=FIXSIM|52=20161121-20:57:20.038|56=BRANZOL|10=037|
20161121-20:57:50.176 : 8=FIX.4.2|9=58|35=0|34=465|49=FIXSIM|52=20161121-20:57:50.176|56=BRANZOL|10=044|
20161121-20:57:50.176 : 8=FIX.4.2|9=58|35=0|34=465|49=BRANZOL|52=20161121-20:57:50.176|56=FIXSIM|10=044|
20161121-20:58:20.000 : 8=FIX.4.2|9=58|35=0|34=466|49=BRANZOL|52=20161121-20:58:20.000|56=FIXSIM|10=029|
20161121-20:58:20.001 : 8=FIX.4.2|9=58|35=0|34=466|49=FIXSIM|52=20161121-20:58:20.001|56=BRANZOL|10=030|
20161121-20:58:50.143 : 8=FIX.4.2|9=58|35=0|34=467|49=BRANZOL|52=20161121-20:58:50.142|56=FIXSIM|10=040|
20161121-20:58:50.143 : 8=FIX.4.2|9=58|35=0|34=467|49=FIXSIM|52=20161121-20:58:50.143|56=BRANZOL|10=041|
20161121-20:59:20.199 : 8=FIX.4.2|9=58|35=0|34=468|49=BRANZOL|52=20161121-20:59:20.199|56=FIXSIM|10=051|
20161121-20:59:20.200 : 8=FIX.4.2|9=58|35=0|34=468|49=FIXSIM|52=20161121-20:59:20.200|56=BRANZOL|10=034|
20161121-20:59:50.174 : 8=FIX.4.2|9=58|35=0|34=469|49=BRANZOL|52=20161121-20:59:50.174|56=FIXSIM|10=048|
20161121-20:59:50.175 : 8=FIX.4.2|9=58|35=0|34=469|49=FIXSIM|52=20161121-20:59:50.174|56=BRANZOL|10=048|
20161121-21:00:20.044 : 8=FIX.4.2|9=58|35=0|34=470|49=BRANZOL|52=20161121-21:00:20.044|56=FIXSIM|10=020|
20161121-21:00:20.044 : 8=FIX.4.2|9=58|35=0|34=470|49=FIXSIM|52=20161121-21:00:20.044|56=BRANZOL|10=020|
20161121-21:00:50.141 : 8=FIX.4.2|9=58|35=0|34=471|49=BRANZOL|52=20161121-21:00:50.141|56=FIXSIM|10=022|
20161121-21:00:50.142 : 8=FIX.4.2|9=58|35=0|34=471|49=FIXSIM|52=20161121-21:00:50.142|56=BRANZOL|10=023|
20161121-21:01:20.095 : 8=FIX.4.2|9=58|35=0|34=472|49=BRANZOL|52=20161121-21:01:20.095|56=FIXSIM|10=029|
20161121-21:01:20.096 : 8=FIX.4.2|9=58|35=0|34=472|49=FIXSIM|52=20161121-21:01:20.096|56=BRANZOL|10=030|
20161121-21:01:50.245 : 8=FIX.4.2|9=58|35=0|34=473|49=BRANZOL|52=20161121-21:01:50.245|56=FIXSIM|10=030|
20161121-21:01:50.245 : 8=FIX.4.2|9=58|35=0|34=473|49=FIXSIM|52=20161121-21:01:50.245|56=BRANZOL|10=030|
20161121-21:02:20.220 : 8=FIX.4.2|9=58|35=0|34=474|49=BRANZOL|52=20161121-21:02:20.220|56=FIXSIM|10=022|
20161121-21:02:20.221 : 8=FIX.4.2|9=58|35=0|34=474|49=FIXSIM|52=20161121-21:02:20.220|56=BRANZOL|10=022|
20161121-21:02:50.001 : 8=FIX.4.2|9=58|35=0|34=475|49=BRANZOL|52=20161121-21:02:50.001|56=FIXSIM|10=023|
20161121-21:02:50.001 : 8=FIX.4.2|9=58|35=0|34=475|49=FIXSIM|52=20161121-21:02:50.001|56=BRANZOL|10=023|
20161121-21:03:20.188 : 8=FIX.4.2|9=58|35=0|34=476|49=BRANZOL|52=20161121-21:03:20.188|56=FIXSIM|10=038|
