20161121-12:26:27.915 : 8=FIX.4.4|9=76|35=A|34=1|49=CLIENT1|52=20161121-12:26:27.915|56=EXECUTOR|98=0|108=30|141=Y|10=144|
20161121-12:27:27.762 : 8=FIX.4.4|9=76|35=A|34=1|49=CLIENT1|52=20161121-12:27:27.761|56=EXECUTOR|98=0|108=30|141=Y|10=144|
20161121-12:28:27.212 : 8=FIX.4.4|9=76|35=A|34=1|49=CLIENT1|52=20161121-12:28:27.211|56=EXECUTOR|98=0|108=30|141=Y|10=135|
20161121-12:29:27.229 : 8=FIX.4.4|9=76|35=A|34=1|49=CLIENT1|52=20161121-12:29:27.229|56=EXECUTOR|98=0|108=30|141=Y|10=145|
20161121-12:30:27.806 : 8=FIX.4.4|9=76|35=A|34=1|49=CLIENT1|52=20161121-12:30:27.806|56=EXECUTOR|98=0|108=30|141=Y|10=138|
20161121-12:31:27.049 : 8=FIX.4.4|9=76|35=A|34=1|49=CLIENT1|52=20161121-12:31:27.049|56=EXECUTOR|98=0|108=30|141=Y|10=138|
20161121-12:32:27.815 : 8=FIX.4.4|9=76|35=A|34=1|49=CLIENT1|52=20161121-12:32:27.815|56=EXECUTOR|98=0|108=30|141=Y|10=140|
20161121-12:33:27.186 : 8=FIX.4.4|9=76|35=A|34=1|49=CLIENT1|52=20161121-12:33:27.186|56=EXECUTOR|98=0|108=30|141=Y|10=142|
20161121-12:34:27.065 : 8=FIX.4.4|9=76|35=A|34=1|49=CLIENT1|52=20161121-12:34:27.065|56=EXECUTOR|98=0|108=30|141=Y|10=139|
20161121-12:38:41.831 : 8=FIX.4.4|9=76|35=A|34=1|49=CLIENT1|52=20161121-12:38:41.831|56=EXECUTOR|98=0|108=30|141=Y|10=140|
20161121-12:40:25.436 : 8=FIX.4.4|9=76|35=A|34=1|49=CLIENT1|52=20161121-12:40:25.436|56=EXECUTOR|98=0|108=30|141=Y|10=136|
20161121-12:41:25.233 : 8=FIX.4.4|9=76|35=A|34=1|49=CLIENT1|52=20161121-12:41:25.233|56=EXECUTOR|98=0|108=30|141=Y|10=132|
20161121-12:42:25.649 : 8=FIX.4.4|9=76|35=A|34=1|49=CLIENT1|52=20161121-12:42:25.648|56=EXECUTOR|98=0|108=30|141=Y|10=143|
20161121-13:19:14.742 : 8=FIX.4.4|9=76|35=A|34=1|49=CLIENT1|52=20161121-13:19:14.742|56=EXECUTOR|98=0|108=30|141=Y|10=141|
20161121-13:19:19.790 : 8=FIX.4.4|9=76|35=A|34=1|49=CLIENT1|52=20161121-13:19:19.790|56=EXECUTOR|98=0|108=30|141=Y|10=149|
20161121-13:39:41.146 : 8=FIX.4.4|9=76|35=A|34=1|49=CLIENT1|52=20161121-13:39:41.146|56=EXECUTOR|98=0|108=30|141=Y|10=141|
20161121-13:40:41.932 : 8=FIX.4.4|9=76|35=A|34=1|49=CLIENT1|52=20161121-13:40:41.932|56=EXECUTOR|98=0|108=30|141=Y|10=136|
