8=FIX.4.2|9=74|35=A|34=1|49=BRANZOL|52=20170307-17:46:50.265|56=FIXSIM|98=0|108=30|141=Y|10=028|8=FIX.4.2|9=74|35=A|34=1|49=FIXSIM|52=20170307-17:46:50.276|56=BRANZOL|98=0|108=30|141=Y|10=030|8=FIX.4.2|9=97|35=D|34=2|49=BRANZOL|52=20170307-17:46:53.644|56=FIXSIM|11=1|21=3|38=100|40=2|44=10|54=1|55=SMBL|10=075|8=FIX.4.2|9=97|35=D|34=2|49=BRANZOL|52=20170307-17:46:53.644|56=FIXSIM|11=1|21=3|38=100|40=2|44=10|54=1|57=SMBL2|10=075|8=FIX.4.2|9=104|35=3|34=2|49=FIXSIM|52=20170307-17:46:53.646|56=BRANZOL|45=2|58=Required tag missing|371=60|372=D|373=1|10=157|