8=FIX.4.2|9=72|35=A|34=1|49=FIXIMULATOR|52=20161121-16:35:26.513|56=BANZAI|98=0|108=30|10=004|8=FIX.4.2|9=69|35=2|34=2|49=FIXIMULATOR|52=20161121-16:35:26.513|56=BANZAI|7=1|16=0|10=094|8=FIX.4.2|9=60|35=5|34=3|49=FIXIMULATOR|52=20161121-16:35:26.520|56=BANZAI|10=220|8=FIX.4.2|9=72|35=A|34=4|49=FIXIMULATOR|52=20161121-16:35:31.514|56=BANZAI|98=0|108=30|10=004|8=FIX.4.2|9=69|35=2|34=5|49=FIXIMULATOR|52=20161121-16:35:31.514|56=BANZAI|7=2|16=0|10=095|8=FIX.4.2|9=60|35=5|34=6|49=FIXIMULATOR|52=20161121-16:35:31.518|56=BANZAI|10=226|8=FIX.4.2|9=72|35=A|34=7|49=FIXIMULATOR|52=20161121-16:35:36.513|56=BANZAI|98=0|108=30|10=011|8=FIX.4.2|9=69|35=2|34=8|49=FIXIMULATOR|52=20161121-16:35:36.513|56=BANZAI|7=3|16=0|10=103|8=FIX.4.2|9=60|35=5|34=9|49=FIXIMULATOR|52=20161121-16:35:36.517|56=BANZAI|10=233|8=FIX.4.2|9=73|35=A|34=10|49=FIXIMULATOR|52=20161121-16:35:41.513|56=BANZAI|98=0|108=30|10=050|8=FIX.4.2|9=70|35=2|34=11|49=FIXIMULATOR|52=20161121-16:35:41.514|56=BANZAI|7=4|16=0|10=135|8=FIX.4.2|9=61|35=5|34=12|49=FIXIMULATOR|52=20161121-16:35:41.517|56=BANZAI|10=016|8=FIX.4.2|9=73|35=A|34=13|49=FIXIMULATOR|52=20161121-16:35:46.512|56=BANZAI|98=0|108=30|10=057|8=FIX.4.2|9=70|35=2|34=14|49=FIXIMULATOR|52=20161121-16:35:46.512|56=BANZAI|7=5|16=0|10=142|8=FIX.4.2|9=61|35=5|34=15|49=FIXIMULATOR|52=20161121-16:35:46.514|56=BANZAI|10=021|8=FIX.4.2|9=73|35=A|34=16|49=FIXIMULATOR|52=20161121-16:35:51.512|56=BANZAI|98=0|108=30|10=056|8=FIX.4.2|9=70|35=2|34=17|49=FIXIMULATOR|52=20161121-16:35:51.512|56=BANZAI|7=6|16=0|10=142|8=FIX.4.2|9=61|35=5|34=18|49=FIXIMULATOR|52=20161121-16:35:51.515|56=BANZAI|10=021|8=FIX.4.2|9=73|35=A|34=19|49=FIXIMULATOR|52=20161121-16:35:56.513|56=BANZAI|98=0|108=30|10=065|8=FIX.4.2|9=70|35=2|34=20|49=FIXIMULATOR|52=20161121-16:35:56.513|56=BANZAI|7=7|16=0|10=143|8=FIX.4.2|9=61|35=5|34=21|49=FIXIMULATOR|52=20161121-16:35:56.517|56=BANZAI|10=022|8=FIX.4.2|9=73|35=A|34=22|49=FIXIMULATOR|52=20161121-16:36:01.513|56=BANZAI|98=0|108=30|10=050|8=FIX.4.2|9=70|35=2|34=23|49=FIXIMULATOR|52=20161121-16:36:01.513|56=BANZAI|7=8|16=0|10=138|8=FIX.4.2|9=61|35=5|34=24|49=FIXIMULATOR|52=20161121-16:36:01.517|56=BANZAI|10=016|8=FIX.4.2|9=73|35=A|34=25|49=FIXIMULATOR|52=20161121-16:36:06.513|56=BANZAI|98=0|108=30|10=058|8=FIX.4.2|9=70|35=2|34=26|49=FIXIMULATOR|52=20161121-16:36:06.513|56=BANZAI|7=9|16=0|10=147|8=FIX.4.2|9=61|35=5|34=27|49=FIXIMULATOR|52=20161121-16:36:06.517|56=BANZAI|10=024|