8=FIX.4.2|9=74|35=A|34=1|49=FIXSIM|52=20170505-10:23:03.160|56=BRANZOL|98=0|108=30|141=Y|10=008|8=FIX.4.2|9=104|35=3|34=2|49=FIXSIM|52=20170505-10:23:03.160|56=BRANZOL|45=2|58=Required tag missing|371=60|372=D|373=1|10=131|8=FIX.4.2|9=113|35=3|34=3|49=FIXSIM|52=20170505-10:23:03.160|56=BRANZOL|45=2|58=Tag specified out of required order|371=57|372=D|10=217|