8=FIX.4.2|9=77|35=A|34=1|49=BANZAI|52=20161121-13:47:10.965|56=FIXMULATOR|98=0|108=30|141=Y|10=241|