8=FIX.4.2|9=74|35=A|34=1|49=BRANZOL|52=20170504-13:56:57.626|56=FIXSIM|98=0|108=30|141=Y|10=032|8=FIX.4.2|9=97|35=D|34=2|49=BRANZOL|52=20170504-13:57:00.855|56=FIXSIM|11=1|21=3|38=100|40=2|44=10|54=1|55=SMBL|10=068|8=FIX.4.2|9=56|35=0|34=3|49=BRANZOL|52=20170504-13:57:30.800|56=FIXSIM|10=189|