8=FIX.4.4|9=76|35=A|34=1|49=CLIENT1|52=20161121-13:40:41.932|56=EXECUTOR|98=0|108=30|141=Y|10=136|